:020000040000FA
:0600000002011A020ECFFE
:03002B0002144C70
:0300330002142E86
:03005300020F4257
:03006B0002140577
:10008300020D8FE5C754F84401F5C779012200003A
:100093000080FB120086B90003020104E4791B7897
:1000A30002B800028004F709D8FCE4791D7802B88D
:1000B30000028004F709D8FCE490028178A7790252
:1000C3008002F0A3D8FCD9FA781A90014A7A01BACF
:1000D30000028007E493A3F608DAF97A277B0490F9
:1000E300014B78AF79018015E493A3AD82AE838A87
:1000F300828B83F0A3AA82AB838D828E83D8E9D9C6
:10010300E7758253758365740012012C75829175AE
:100113008300740012012C75D00075813F7518811E
:10012300751902759F00020096C09FF59FE473D076
:100133009F22D083D082C09FE493C0E0740193C018
:10014300E0740293F59F2201FF0000B40000280031
:100153002800283075A000A000A000A0000008001F
:1001630008E001F000100010001000100010001053
:100173000050005000500010001000D00700000095
:100183000000000F0001000500307507001000019A
:100193000081FF00000000FF4D026B025302FF913C
:1001A30003910391039103910391039103910391AC
:1001B300039103910391039103FFFF013075030240
:1001C3000104000000000000000000000000000027
:1001D3000000000000000000000000000000FF001D
:1001E3000201060303D8FE0A16D8FE00C5004142E9
:1001F3004300B5060000120135B34C00120135DB94
:100203004C00120135094D00120135404D00120119
:10021300358B4D00120135D64D00120135164E00B7
:10022300120135D34E001201352E620012013546FC
:1002330062001201356123001201353424001201DA
:1002430035DD2400120135302500120135E025008B
:100253001201356C2600120135582700120135872B
:1002630027001201359A2800120135E228001201F5
:1002730035B72900120135F329001201350F2A0081
:10028300120135F8570012013503580012013515D4
:100293005800120135ED5800120135F258001201D1
:1002A30035E55900120135CE5300120135F65300DE
:1002B300120135335400120135A85400120135BD23
:1002C3005400120135D25400120135395500120180
:1002D30035825500120135AC5500120135D1550058
:1002E300120135C94900120135FC4900120135DC00
:1002F3004A00120135014B00120135781400120136
:10030300354D16001201352A1700120135CE17009C
:10031300120135281800120135C8190012013509D8
:100323001A00120135A91B001201356C4600120197
:10033300353748001201359F4900120135F41B007F
:10034300120135A21C00120135CE1C001201351D0D
:100353001D001201353E1E00120135D41F0012018B
:1003630035492000120135B32000120135B82100B0
:100373001201351823001201353723001201358E7F
:100383005B001201359A5B00120135805C0012019B
:1003930035AF66001201350635001201352B3500E5
:1003A300120135433600120135C63700120135EB11
:1003B30038001201355C39001201359939001201F8
:1003C30035BC3900120135D23900120135CD420056
:1003D300120135634300120135794300120135EFF1
:1003E3004300120135634400120135A14400120198
:1003F300351545001201358E45001201359745002C
:10040300120135A34500120135C74500120135DD40
:1004130045001201353C46001201355A4F001201C6
:1004230035674F00120135814F00120135C04F006F
:100433001201352550001201353A5000120135459D
:10044300500012013552500012013569500012015B
:10045300357750001201358250001201359150005A
:10046300120135AE5000120135BE5000120135D4D1
:100473005000120135F05000120135FB50001201FB
:10048300351051001201352451001201358F6300DC
:10049300120135BB6300120135166400120135DB0E
:1004A3003900120135193A00120135733A0012016D
:1004B30035943A00120135E53A001201350E3B003E
:1004C300120135183B00120135843B00120135122D
:1004D3003C00120135603C00120135963C001201CC
:1004E300351D3D001201355D3D00120135953D007E
:1004F300120135A73D00120135C63D00120135CF6B
:100503003D00120135BA5E00120135F955001201A2
:10051300352F5600120135655600120135BE5700BE
:100523001201352864001201353E6400120135487A
:100533006400120135926400120135F46500120162
:10054300358E3E00120135A73E001201354B3F00A8
:100553001201358B3F00120135A43F00120135D83B
:100563003F001201352540001201356040001201A1
:1005730035604200120135DF620012013508630065
:100583001201354A6300120135E22F00120135A032
:100593003100120135793200120135C232001201E5
:1005A30035F53200120135E233001201356666007B
:1005B300120135786100120135896100120135ABF2
:1005C3006500120135EA65001201359E66001201CD
:1005D300359E6000120135AE6000120135C0600027
:1005E300120135726100120135B75C001201353C0E
:1005F3005D00120135A25D00120135EE59001201B2
:1006030035175A001201357D5A001201359D5A00E3
:10061300120135EE5A00120135475B001201358194
:100623005B00120135845B001201358866001201FC
:10063300359866001201359B6600120135F87F007C
:100643001201359151001201351C53001201357D01
:100653005300120135C35300120135C06400120167
:1006630035BB5D00120135E55D00120135842A00BA
:10067300120135412B001201357C2B00120135DEAE
:100683002B001201352A2C00120135832C00120194
:1006930035142D00120135D12E00120135532F00D0
:1006A300120135B82F00120135B45F001201353E37
:1006B30060001201357E60001201353A6600E06683
:1006C300701008A3E066700A08A3E066700408A32C
:1006D300E06622C3E7960809E7960809E796080942
:1006E300E79622C3E09608A3E09608A3E09608A342
:1006F300E09622C008C3E096F50808A3E0964208F6
:1007030008A3E096420808A3E09645087001D3D0F9
:100713000822080808EAC0E0EBC0E086F0E7A4FA84
:10072300180986F0E7A42AFA180986F0E7A42AFA3A
:10073300180986F0E7A42AFA1986F0E7A4FBE5F086
:100743002AFA190886F0E7A42BFBE5F03AFA190810
:1007530086F0E7A42BFBE5F03AFA18180986F0E7D0
:10076300A4C5F02BFBE43AFA1908E7C5F0C6A426A2
:10077300F6E5F03BFBE43AFA1886F0E7A4F6E5F079
:100783000826F6E43B08F6E43A08F6D0E0FBD0E0AE
:10079300FA22E4CFC0E0E4CEC0E0E4CDC0E0E4CC94
:1007A300C0E075F020E626F608E633F608E633F6F1
:1007B30008E633F6181818EC33FCED33FDEE33FE80
:1007C300EF33FFC3EC9709ED9709EE9709EF9719FC
:1007D3001919400FFFEC97FC09ED97FD09EE97FE01
:1007E300191906D5F0BFECF709EDF709EEF709EF94
:1007F300F7191919D0E0FCD0E0FDD0E0FED0E0FFFE
:10080300226016080808C6C313C618C613C618C63E
:1008130013C618C613C6D5E0EA22700908080822D1
:100823006016181818C6C333C608C633C608C633BD
:10083300C608C633C6D5E0EA22E627F60809E63736
:10084300F60809E637F60809E637F622E026F60841
:10085300A3E036F608A3E036F608A3E036F622E076
:1008630026F008A3E036F008A3E036F008A3E0364C
:10087300F022C3E697F60809E697F60809E697F625
:100883000809E697F622C3E096F008A3E096F0087D
:10089300A3E096F008A3E096F022E657F60809E6EF
:1008A30057F60809E657F60809E657F622E056F622
:1008B30008A3E056F608A3E056F608A3E056F6228E
:1008C300E0F608A3E0F608A3E0F608A3E0F622E6C4
:1008D300F008A3E6F008A3E6F008A3E6F022E0FAA6
:1008E300A3E0FBA3E0FCA3E0FD22EAF0A3EBF0A36B
:1008F300ECF0A3EDF022E0F8A3E0F9A3E0FAA3E023
:10090300FB22E8F0A3E9F0A3EAF0A3EBF022CAC0CC
:10091300E0E6F0A308DAFAD0E0FA22CAC0E0E0A3E6
:10092300C582CCC582C583CDC583F0A3C582CCC5A2
:1009330082C583CDC583DAE6D0E0CA22B90010BBF5
:100943000008E88AF084F8AAF022E4FBC8FA22EB54
:1009530070227B10C833C8C933C9335007C39AC345
:10096300DBF280069A50012ADBEAC833F4C8C933A4
:10097300F4C9FA2275F008E4C833C8C933C933C9C6
:100983009AC99B5004C92AC93BD5F0ECFBC833F480
:10099300C8E4C9FA22600D08C6A2E713C618C61335
:1009A300C6D5E0F322600C08C6C313C618C613C627
:1009B300D5E0F422700422600D18C6C333C608C6FE
:1009C30033C6D5E0F41822251810AF08F518400CEB
:1009D30015198008F51840021519D2AF2200C0D0AE
:1009E300251810AF08F518500C05198008F5185094
:1009F300020519D2AFD0D0222518F58210AF08F521
:100A030018400C15198008F51840021519D2AF8546
:100A13001983222518F582E43519F583222518FA5E
:100A2300E43519FB222518FCE43519FD22E473256E
:100A330018C582C0E0E51934FFC583C0E0E518C3DB
:100A4300958224F810AF088583198582188008855C
:100A53008319858218D2AFCEF0A3E520F0A37808DE
:100A6300E608F0A3DEFAEFF0A3E58124FAF8E6083E
:100A7300F0A3E608F0A3E608F0A30808E608F0A34D
:100A8300E608F0A315811581D0E0FED0E0F81581CA
:100A930015811581E8C0E0EEC0E0222518C582C0AB
:100AA300E0E51934FFC583C0E0E518C3958224F956
:100AB30010AF08858319858218800885831985827C
:100AC30018D2AFCEF0A3E520F0A37808E608F0A390
:100AD300DEFAEFF0A3E58124FBF8E608F0A3E608CD
:100AE300F0A30808E608F0A3E608F0A31581158132
:100AF300D0E0FED0E0F815811581E8C0E0EEC0E05B
:100B030022851983851882E0A3FEE0A3F5207808E7
:100B1300E0A3F608DFFAE0A3FFE0A3C0E0E0A3C090
:100B2300E0E0A3C0E0E0A3C0E0E0A3C0E010AF08B2
:100B33008582188583198008858218858319D2AF29
:100B4300D083D082020132851983851882E0A3FE07
:100B5300E0A3F5207808E0A3F608DFFAE0A3FFE0BE
:100B6300A3C0E0E0A3C0E0E0A3C0E0E0A3C0E010C6
:100B7300AF088582188583198008858218858319B3
:100B8300D2AFD083D08222C0D02518C582C0E0E581
:100B93001934FFC583C0E0E518C3958224F310AF71
:100BA300088583198582188008858319858218D260
:100BB300AFC8F0A3E9F0A3EAF0A3EBF0A37908E749
:100BC30009F0A3D8FAECF0A3EDF0A3EEF0A3EFF055
:100BD300A3D0E0F0A3D0E0F0A3D0E0F0A3E520F0B1
:100BE300A3E5F0F0A322851983851882E0C0E0A372
:100BF300E0F9A3E0FAA3E0FBA37808E0F608A3DF9B
:100C0300FAE0FCA3E0FDA3E0FEA3E0FFA3E0C0E065
:100C1300A3E0C0E0A3E0F5D0A3E0F520A3E0A3F5B3
:100C2300F010AF088583198582188008858319859C
:100C33008218D2AFD082D083D0E0F8D0E0327404EF
:100C43008006740280027401C0E0F4041209FBD030
:100C5300E0120911227404800474028000CCC0E005
:100C6300EDC0E0E518C39CCCAD1950011D10AF06D3
:100C73008C188D1980068C188D19D2AF12091ED0CD
:100C8300E0FDD0E0FC22D083D082E9C0E0E493A36E
:100C9300C386F0C5F095F0F908E493A386F0C5F098
:100CA30095F0700BE493A3C3994005E9048002A374
:100CB300E475F002A42582F582E5F03583F583D04F
:100CC300E0F9E493A3C0E0E493C0E022D083D082B0
:100CD300ECC0E0EDC0E0E493A3FCE493A3FDED4C92
:100CE300600D120D1BEC24FFFCED34FFFD80EFE4DF
:100CF30093A3FCE493A3FDED4C600D120D5AEC2479
:100D0300FFFCED34FFFD80EFD0E0FDD0E0FCE49389
:100D1300A3C0E0E493C0E022C0E0C3E49396087468
:100D230001939618400FE493667008087401936664
:100D33001870007019A3A3C3E493960874019396E3
:100D430018A3A3400DD0E0D0E0D0E0020D0BA3A385
:100D5300A3A3A3A3D0E022C0E0C0F088F0E493668D
:100D630070080874019366187000A8F0A3A3700BB1
:100D7300D0F0D0E0D0E0D0E0020D0BA3A3D0F0D0B0
:020D8300E0226C
:100D8800851B87851CC622C0E0C0D0E8C0E0E9C04A
:100D9800E0EAC0E0EBC0E0ECC0E0EDC0E0EEC0E0AF
:100DA800C008C009C00AC00BC082C083C0F0A2AF8F
:100DB800E433FEC2AF759B00906182E0A2E0500967
:100DC800E591A2E050037591FEE0A2E55009E59196
:100DD800A2E550037591DFE0A2E64003020E82E52A
:100DE80091A2E64003020E827591BF9002C7E064AB
:100DF8000570081203F712040380031203FD751B24
:100E080000120451E99002C8F07900120445120357
:100E18004F7A017B009002C6E0F91204E190780352
:100E2800E06442705590033BE014F0704DC2AF127D
:100E38000E3A00781ED0E0F618D0E0F6E59F540789
:100E480070057509FF800375097FC4C0E0781DE649
:100E5800F50808E65509F509740B78081209A8D0B1
:100E6800E02508F8906270E0A2E740F8E8C3339004
:100E78006272F0906270E0D2E0F0906181E0A2E3EB
:100E88005009E5E9A2E3500375E9F7A3E0A2E750AA
:100E980009E591A2E7500375917FEEA2E092AFD0E9
:100EA800F0D083D082D00BD00AD009D008D0E0FE91
:100EB800D0E0FDD0E0FCD0E0FBD0E0FAD0E0F9D003
:100EC800E0F8D0D0D0E032C0E0C0D0C082C083907B
:100ED8006183E0A2E05009E5BFA2E0500375BFFEC0
:100EE800E0A2E15009E5BFA2E1500375BFFDE0A211
:100EF800E25009E5BFA2E2500375BFFBE0A2E35050
:100F080009E5BFA2E3500375BFF7E0A2E45009E585
:100F1800BFA2E4500375BFEFE0A2E55009E5BFA208
:100F2800E5500375BFDFE0A2E65009E5BFA2E65031
:100F38000375BFBFD083D0828088C0E0C0D0E8C02E
:100F4800E0E9C0E0EAC0E0EBC0E0ECC0E0EDC0E002
:100F5800C0F0E5A7A2E6500FE5A1A2E6500953A705
:100F6800BF75A1BF120FA7E5A7A2E5500CE5A1A286
:100F7800E5500653A7DF75A1DFE5A7A2E15009E513
:100F8800A1A2E1500375A1FDE5A7A2E2500CE5A1DD
:100F9800A2E2500653A7FB75A1FBD0F0020EB8746D
:100FA800F8120A9E751B019002C7E06406701512BC
:100FB80003BB8A828B83A3A3A3A3A3A3E0FAA3E022
:100FC800FB1203E5A2AFE433FED2AF9002CDE0649A
:100FD8000170187A207B009002C6E0F91205657A44
:100FE800207B009002C6E0F91204E7906182E0D20B
:100FF800E6F0900338E0602185C61C80169002CC8C
:10100800E064017008E5C654F84405F5C653BEFC13
:10101800120D887401651B60E4EEA2E092AF7F01B7
:10102800020B4A74E9120A9E74F81209CA851882DA
:10103800851983ECF0A3EDF08A088B099002C7E0CC
:1010480024F7C3940550067508010211C21203BBA8
:101058008A0A8B0BAE0AAF0BEE4F70030211BFACBE
:1010680008AD097402120A16AA82AB8312040F8E05
:10107800828F83A3A3750CFF750DFF750EFF750F87
:1010880000780C1208B07402120A167510FF751158
:10109800FF7512FF75130078101208B0780C7910DC
:1010A8001206D6502A780C79101208757508017541
:1010B80009C8750A00750B007808790C1206D65015
:1010C80052850C08850D09850E0A850F0B80507511
:1010D80014017515C8751600751700851008851157
:1010E8000985120A85130B7808790C12087578148B
:1010F80079081206D6401C750800750900750A00A3
:10110800750B01780879101208757808790C12089F
:101118003C800C750801750900750A00750B007490
:1011280009780812081D750C19F50DF50EF50F78DC
:1011380008790C1207958E828F83A3A3A3A3A3A378
:10114800E0F8A3E0F97AD07B0312093F880C890DF7
:10115800E4F50EF50F7808790C12083C7406120AAB
:1011680016E0F8A3E0F97AD07B0312093FE8FA8A7F
:101178000CE4F50D7808790C1206D6500778087932
:101188000C1208759002C7E06408600AE064066003
:1011980005E06405702D750C0D780C79081206D6DB
:1011A8004021750CF4750DFF750EFF750FFF78085B
:1011B800790C12083C800C750800750900750A0046
:1011C800750B00851882851983E0F8A3E0F58388FC
:1011D8008278081208D274081209E07F10020B4ABC
:1011E80074F7120A9E120421900336E0640170100D
:1011F800906245E4F0A3F053F4F343FE0C5390F3EC
:101208001203D3E5C654804449F5C6E59E547F646D
:101218004970F8906185740FF0900334E0F470021F
:10122800A3E0604E900335E0600814601B14602E44
:101238008040750801750900900334E078081209A8
:10124800B7E508F45280802A7508017509009003F3
:1012580034E078081209B7E508F45290801475084C
:1012680001750900900334E078081209B7E508F41D
:1012780052A079007F02020B4A74F7120A9EE9FE17
:10128800EAFF74016E700C7A807B009002C6E0F968
:101298001204E1901470E493F46008E493F91203E3
:1012A80043800953C680E59E547F70FA1203D99093
:1012B8000336E06401700312035B900334E0F470BA
:1012C80002A3E0604B900335E0600814601A1460D4
:1012D8002C803D750801750900900334E0780812E8
:1012E80009B7E50842808028750801750900900350
:1012F80034E078081209B7E50842908013750801B0
:10130800750900900334E078081209B7E50842A08F
:101318001204211203BB8A088B09A808A909E84905
:101328006015E5E170FCE82414F582E93400F583E2
:10133800E0F46003E0F5E174016F700A7A0190024D
:10134800C6E0F912052F02127C74ED120A9E8A0873
:101358008B098C0A8D0B7413120A16780C1208C3A9
:101368007808790C1206D67510017511C875120027
:1013780075130050127808790C12087578107908DE
:101388001206D650168010780C7908120875781055
:10139800790C1206D640047901800279007F0C028C
:1013A8000B4A74ED120A9E8A088B098C0A8D0B74FD
:1013B80013120A16780C1208C3780C79081206D68C
:1013C80040117808790C120875AA08AB09AC0AAD67
:1013D8000B802275100075110075120075130178C5
:1013E80010790C1208757810790812083CAA10AB0D
:1013F80011AC12AD1380A6C2AF02000022C0E07487
:10140800F2120B8AA2AFE433FED2AFE589A2E15013
:1014180003120619758900C2C5751A00EEA2E0927A
:10142800AF7F01020BE9C0E074F2120B8AA2AFE4AD
:1014380033FED2AFE58BA2E05003120619758B007C
:10144800C2E880D5C0E0C0D0E8C0E0E9C0E0E5A8C7
:10145800D2AFC2C7751A00A2E7A2E792AFD0E0F9EF
:10146800D0E0F8D0D0D0E032FFFFFFFFFFFFFFFF52
:1014780074F4120A32E99002C6F012041B90780044
:10148800E0C4540F540764037004793F8002797FE5
:101498007508067509007808120C457CB47D027A37
:1014A800EA7B071205E974021209E09002B4E0F43D
:1014B8007049A3E0F47044A3E0F4703FA3E0F47033
:1014C8003AA3E0F47035A3E0F4703090780EE09021
:1014D80002B4F090780FE09002B5F0907810E090A8
:1014E80002B6F0907811E09002B7F0907812E09090
:1014F80002B8F0907813E09002B9F09002BA74FF45
:10150800F0A3F0A3F0A3F0A3F0A3F09002B4E0904E
:1015180002C0F09002B5E09002C1F09002B6E090EF
:1015280002C2F09002B7E09002C3F09002B8E090D7
:1015380002C4F09002B9E09002C5F09002D8740697
:10154800F0A3740DF0A3E4F0A37440F0A37401F0C9
:101558009002E274FFF0A3F0A3F0A3F0A3F0A3F0CD
:101568009002E1E4F09002E8F0A374A0F0A3E4F0A4
:10157800A37403F0A37407F0A3E4F0A37428F0A302
:10158800E4F0A304F0A3E4F0900311F090033474A2
:10159800FFF0A3E4F0900336F090033804F09003D2
:1015A800397490F0A37401F0120355120307120363
:1015B800CD79017A3B7B0312038590033BE075F0FC
:1015C8001484E5F004F012038B7A009002C6E0F967
:1015D80012052F907803E06442705590033BE014A5
:1015E800F0704DC2AF1215F000781ED0E0F618D09A
:1015F800E0F6E59F540770057509FF800375097FBC
:10160800C4C0E0781DE6F50808E65509F509740B2D
:1016180078081209A8D0E02508F8906270E0A2E7DF
:1016280040F8E8C333906272F0906270E0D2E0F064
:101638009002DDE4F0A3F07A80FB9002C6E0F91294
:1016480004E102181974F4120A32EAFEEBFFEEA262
:10165800E050449002C8E0C39480E0500FC333F8D0
:10166800E433F9747E28F5827404800EF4C333F8E9
:10167800E433F9748C28F582740439F583E0F8A30F
:10168800E0F5838882120A307A009002C6E0F912E7
:10169800052FEE6401803D5480603D900339E0F8E9
:1016A800A3E0F9E849602A7900120529900339E096
:1016B800F508A3E0F509E4F50AF50B7808120C41E2
:1016C8007A007B019002C6E0F912055974041209E8
:1016D800E0EE6480FAEF802DEF5401600C7901127E
:1016E8000529EEFAEF6401801CEF5402600AC2AFCC
:1016F80075C9AB75C95B80FEEF5404600B1213FF0C
:10170800EEFAEF6404FB80179002CDE06401700BE1
:10171800EE54206006EE6420FA80047A007B000212
:101728001819C082C083C2AF1203FDE5E170FC75D1
:10173800E10112034975E1F112042712033D79070B
:10174800120475790112047B790212044B12045DAC
:10175800120469790012046F790112046F7A557BBB
:10176800557C557D001204339002E8E4F0A3F0A301
:10177800F09002EC7407F09002EB7403F09002F121
:10178800E4F09002F0F0900311F01203971203793D
:101798007900120481906012E4F0A3F0906063F085
:1017A800751B009002C7F09002C9F0A3F09002CC1C
:1017B800F09002CD04F09002D704F0900337E4F0E3
:1017C800D2AFF9021BEDC082C0839002B4E08A82D6
:1017D8008B83F09002B5E08A828B83A3F09002B6E7
:1017E800E08A828B83A3A3F09002B7E08A828B837E
:1017F800A3A3A3F09002B8E08A828B83A3A3A3A338
:10180800F09002B9E08A828B83A3A3A3A3A3021B4F
:10181800EA7F04020B047F01020B047F02020B041F
:1018280074F7120A32EAFEEBFF8908740B120A16E3
:10183800E0F8A3E0F9E508606674016508601574CE
:10184800036508603374026508602D7404650860D8
:1018580003021923E8497003021923740A120A16AD
:10186800E0F86008740168600302192374036508CE
:101878006006740265087049EE2460F8EF34FFF9D9
:10188800C3E89461E9943F4003021923EC2460F80B
:10189800ED34FFF9C3E89461E9943F4024807CEE7D
:1018A80024E0F8EF34FFF9C3E894E1E9943F506B82
:1018B800EC24E0F8ED34FFF9C3E894E1E9943F50F3
:1018C8005AC3EC9EED9F40537409120A16E0F86063
:1018D800057401687045740E120A16E0FA600F74F8
:1018E800016A600A74026A600574036A702D740DD7
:1018F800120A16E0F974075960219002E8E06401C1
:101908007005790C0219C5E5089002EBF0600C74BB
:10191800016508600674046508700579120219C526
:10192800740759A3F0EAA3F0E89002E1702FE4F0FD
:101938009002B4E09002E2F09002B5E09002E3F089
:101948009002B6E09002E4F09002B7E09002E5F071
:101958009002B8E09002E6F09002B9802E7401F08F
:101968009002BAE09002E2F09002BBE09002E3F04D
:101978009002BCE09002E4F09002BDE09002E5F035
:101988009002BEE09002E6F09002BFE09002E7F01D
:10199800EA70047900801974016A70047901801072
:1019A80074026A70047902800774036A7005790307
:1019B8001204639002E9EEF0A3EFF0790002181E1A
:1019C80074F6120A32E9FEC39420500BEE9002F12D
:1019D800F06023EA4B700479128023E0F50875095A
:1019E800007808120C45EAFCEBFD7AF27B0212043F
:1019F8009F74021209E09002F07401F07900021855
:101A08002374F0120A32E9FE9002C7E064097003F9
:101A1800021B30E0640A7003021B30E0640B7003A1
:101A2800021B30E0640C7003021B30E0640D70038D
:101A3800021B309002EBE0601664016012E0640360
:101A4800600DE064026008E064046003021BA59076
:101A580002E1E0600764016003021BA59002EBE06D
:101A680064036005E0640270109002E9C3E094A08A
:101A7800A3E094005003021BA59002EBE070030260
:101A88001BA564017003021BA5E064047003021B1C
:101A9800A5EE7003021B3E146003021BA59002E82A
:101AA800E064017003021B3079011203AF9002DF7A
:101AB800EAF0A3EBF09002E87401F09002C7E0703E
:101AC8006E1204098A088B098C0A8D0B750C037534
:101AD8000D00750E00750F007808790C12083C751A
:101AE8000CFF750DFF750EFF7808790C12089D9094
:101AF80002DFE0F8A3E0F5838882A3A37808120840
:101B0800D29002DFE0F8A3E0C82406F582E83400AA
:101B1800F583E4F0A3F0120361E960107ADF7B0239
:101B28001203B59002E8E4F07921800512039D794B
:101B3800007F08020B049002E8E060ECA2AFE433F7
:101B4800FFC2AF7ADF7B021203B59002E8E4F0121D
:101B580003C7E970411203FD906182E0C2E6F0E537
:101B6800E170FC75E1017591BF75E1F19002CDE07E
:101B7800640170187A207B009002C6E0F9120565AE
:101B88007A207B009002C6E0F91204E77A009002FE
:101B9800C6E0F912052FEFA2E092AF809279128089
:101BA8009074F6120A32E9FEC39420500BEE9003AB
:101BB80011F06023EA4B700479128023E0F5087570
:101BC80009007808120C45EAFCEBFD7A127B031237
:101BD800049F74021209E09002F07401F079000287
:101BE8001823F07900D083D082020132C082C083EA
:101BF8009061907404F0A37448F0A37402F09061AB
:101C0800807440F09061BC7403F09061877419F09F
:101C1800906265741BF0906249E0C3941390619CD4
:101C2800400A7409F090606674018007740DF090A2
:101C38006066E4F090619A7433F0A37455F0906193
:101C4800A0743AF0900336E064017009C2919002E2
:101C5800CB746780059002CB7461F0901476E4939E
:101C6800906186F0901470E493F46027E493540F25
:101C7800F8906185E0686012E5C654804449F5C66D
:101C8800E59E547F644970F8E8F053C680E59E5499
:101C98007F70FA79051204878074C082C083E95482
:101CA8000FF9906185E0696012E5C654804449F5F2
:101CB800C6E59E547F644970F8E9F053C680E59EF6
:101CC800547F70FA8048C082C083E5A8F853A87E84
:101CD800906181E4F0A3F0A3F0C2BA539AFEC289DE
:101CE800759B00C2C275E90075910075BF0075A9A2
:101CF8001175B905906181F0A374C0F0A3E4F0D226
:101D0800BA439A0174805842A88003F0A3F0D083A4
:101D1800D082020132C082C08374F81209CA9002CC
:101D2800C9E0F8A3E0F9E8497003021E369002C939
:101D3800E0544060237908851882851983AA82AB0C
:101D480083120385851882851983AA82AB831202C0
:101D5800CB9002C9E054BFF0E0A2E0503190619A04
:101D68007433F0A37455F09061A0743AF090033680
:101D7800E064017009C2919002CB746780059002FB
:101D8800CB7461F01202D19002C9E054FEF0E05425
:101D980002603190619A743FF0A3745AF09061A088
:101DA800747FF0900336E064017009D2919002CB01
:101DB800747180059002CB746AF01202D19002C946
:101DC800E054FDF0E054046013901474E4939061BF
:101DD80086F01202D79002C9E054FBF0E054086084
:101DE80013901475E493906186F01202D79002C99B
:101DF800E054F7F0E054106013901476E493906187
:101E080086F01202D79002C9E054EFF0E054206047
:101E18000A1202D79002C9E054DFF0A3E05401602F
:101E28000D12035B1202DD9002CAE054FEF0740842
:101E38001209E0021D1674EC120A3274F41209CA6F
:101E4800851882851983AC82AD8375838075821667
:101E5800740412091E90147493F46003021FCA904C
:101E68007808E0C394025003021FAA7404120A16E9
:101E7800AC82AD8375838075820E740812091E8545
:101E880018828519838582128583137404120A16B1
:101E9800AC82AD83750EFF750FFF7FFF7E00750C5A
:101EA80048750D78801574086E7003021F3E74091A
:101EB8006E7003021F3E740A6E607B850C82850D6E
:101EC8008378081208C38C828D83A909E50AC9F8AA
:101ED800881074187808120804E5104508F8C3E05B
:101EE80098A3E099850C82850D8378081208C34071
:101EF800188C828D8374187808120804E510450838
:101F0800F8E0C398F8A3E0801C7418780812080455
:101F1800E5104508FAE9FB8C828D83E0F8A3E0F927
:101F2800EAC398F8EB99F9C3E8950EE9950F5006BE
:101F3800880E890FEEFF0EE50C2404F50CE50D3430
:101F480000F50DEEC394135003021EAE74FF650E28
:101F5800700474FF650F60238F08740278081209F3
:101F6800B774482508F58274783509F5837808121E
:101F780008C3851282851383E508F0EC2402FCED82
:101F88003400FD851282851383A38582128583130D
:101F9800740C120A16E5826C7003E5836D60030207
:101FA8001E9C7508017509007808120C4574021208
:101FB8000A16AC82AD837A1D7B051205EF740212F6
:101FC80009E0740C1209E07F0C020B04C082C08384
:101FD8009061AE7468F0A3746AF090624574FBF087
:101FE800A304F053F4FD43FE029003367401F0900D
:101FF80061A0E0643A90619A70237433F0A3745539
:10200800F09061A0743AF0740164017009C2919073
:1020180002CB746780289002CB74618021743FF0F2
:10202800A3745AF09061A0747FF074016401700980
:10203800D2919002CB747180059002CB746A021D14
:1020480015C082C08375E1F19002EBE024FE605276
:102058001470541203679002E1E0F97AE27B0212ED
:10206800042D7AD67BBE7C897D8E1204577A557BE7
:10207800557C557D001204339002ECE0F912043FC0
:10208800790112047B9002DFE0F8A3E0C82416F57A
:1020980082E83400F5837473F0A37403F0790002C6
:1020A8001D1612036D80AF791280F474F7120A328C
:1020B8009002F1E02407F5D99002E1E0C4333354EB
:1020C800C04402F5D978DF790288828983A3A3A363
:1020D800E0F5D988828983A3A882A983E864E5709A
:1020E80003E9640270E39002F1E0601F78DF79028F
:1020F800FAE82413F582E93400F583E0F5D98882FB
:102108008983A3A882A9831AEA70E675E1959004E9
:102118007E7431F0A37403F0A37431F0A37403F058
:10212800A37431F0A37403F0A37431F0A37403F023
:10213800A37431F0A37403F0A37431F0A37403F013
:10214800A37437F0A37403F090048C7491F0A37413
:1021580003F0A37491F0A37403F0A37491F0A37433
:1021680003F0A37491F0A37403F0A37491F0A37423
:1021780003F0A37491F0A37403F09002DFE0F8A3D6
:10218800E0C8240EF582E83400F58374FFF0A3F06C
:10219800A3F0A3F09002DFE0F8A3E0C82414F582CE
:1021A800E83400F5837414F09002C77404022331F4
:1021B80074F7120A329002F1E02407F5D99002E18F
:1021C800E0C4333354C04406F5D978DF79028882F5
:1021D8008983A3A3A3E0F5D988828983A3A882A9C8
:1021E80083E864E57003E9640270E39002F1E0605B
:1021F8001F78DF7902FAE82413F582E93400F583C1
:10220800E0F5D988828983A3A882A9831AEA70E6AF
:10221800900311E02407F5D99002E1E0C433335468
:10222800C04404F5D978DF790288828983A3A3A3FF
:10223800E0F5D988828983A3A882A983E864E57038
:1022480003E9640270E3900311E0601F78DF79020C
:10225800FAE82433F582E93400F583E0F5D9888279
:102268008983A3A882A9831AEA70E675E195900488
:102278007E742BF0A37403F0A37491F0A37403F09D
:10228800A37491F0A37403F0A37491F0A37403F002
:10229800A37491F0A37403F0A37491F0A37403F0F2
:1022A800A37437F0A37403F090048C7491F0A374B2
:1022B80003F0A37491F0A37403F0A37491F0A374D2
:1022C80003F0A37491F0A37403F0A37491F0A374C2
:1022D80003F0A37491F0A37403F09002DFE0F8A375
:1022E800E0C8240EF582E83400F58374FFF0A3F00B
:1022F800A3F0A3F09002DFE0F8A3E0C82414F5826D
:10230800E83400F5837415F09002C7740302233192
:10231800C082C0839002DFE0F8A3E0C82406F582FB
:10232800E83400F583E4021D13F07F01020B04C0BA
:1023380082C08378CE790288828983A3E4F0888278
:102348008983A3A882A983E864D67003E96402702C
:10235800E69002CF7401021D1574F4120A32122A93
:102368007560057911022431900281E054056030CE
:1023780090029E122A7E6005122A7070057910025A
:102388002431900281E0A2E04006120295E960152E
:102398008E828F83E0F8740368600A7402686005AF
:1023A80079120224317A0C7B0012051790029C12D4
:1023B80025DA122A7B606E122894E50812287BE43D
:1023C800F0750A0AF50B780A120C45EEFCEFFD9041
:1023D800029CE02402FAA3E03400FB12049F74027A
:1023E8001209E0120253E9FE600512027780389064
:1023F8000282E0640370307A1D7B001201FF9002B4
:10240800831225DA900283122A7E601B90801E12A6
:102418000C587A047B009002A4E0F912055F74045A
:102428001209E080027E13EEF90229A374EE120A63
:1024380032890C8A0A8B0B8C0E8D0F900281E05426
:102448000570030224D67401650A700D90029E126D
:102458002A7E607A90029E800B9002A0122A7E60EB
:102468006D9002A0E0FEA3E0FFEBC394205008EBC0
:102478006009EC450F700479028055E50C900476EC
:10248800F08E828F83A38582088583097C1F7D0057
:102498007900AA08AB091204AB850B1075110078F6
:1024A80010120C45AC0EAD0FAA08AB0912049F74AC
:1024B800021209E08E828F83E50BF0F9E50AAA087B
:1024C800AB0960051202B980071202BF80027912B7
:1024D8007F0A020B0474F7120A32E9FE122A7B7093
:1024E8000479128039122A706E60047903802F7A79
:1024F800027B009002A4E0F91205659002A2E4F0C4
:10250800A3F07A04FB9002A4E0F912056590028317
:10251800E4F0A312287B7403F079001202C50225A7
:10252800D2D083D08202013274F7120A3290029E0E
:10253800122A7E600D1229A812051D90029EE4F051
:10254800A3F09002A0122A7E60109002A01229AB7C
:1025580012051D9002A0E4F0A3F0900281E054055A
:10256800605F7A777B041202A17E00900281E054BA
:1025780005604A7A207B001205171225D790029E23
:10258800122A7E60367C207D0079001204AB7A2006
:102598007B001205179002A01225DA9002A0122AD9
:1025A8007E600B7C207D0079001204AB800F12291D
:1025B800A812051D90029EE4F0A3F07E13EEF980A8
:1025C800097A007B001202A179007F01020B0490B6
:1025D800029EEAF0A3EBF02274F6120A327E018A18
:1025E800828B83A3A3A3E0FCA3E0FD8C088D09786C
:1025F80008120C8906200466260B266626462646FF
:10260800261C268A828B83A3A3A3A3A312288B123A
:10261800025980268A828B83A3A3A3A3A31229B17C
:1026280088828983A3E0FC88828983A3A3E0FBECEA
:10263800FA88828983E0F912025FE9FE8021740832
:102648006C700374206D70047901800279008A82AD
:102658008B83A3A3A3122A6BFA12026580011EEED4
:10266800F90228D574F2120A32122A7B7003022763
:1026780044122882A3E0F50A120295E960137A0A47
:102688007B001201FF8A088B09AE08AF097A0B801C
:102698002A12027DE960137A067B001201FF8A087C
:1026A8008B09AE08AF097A0780117A087B001201FE
:1026B800FF8A088B09AE08AF097A097B001201FF6F
:1026C8008A088B09900282E07005750B00800375FB
:1026D8000B0190029CE02404FAA3E03400FB1228CA
:1026E8007CA3A3E0F912021790029CE0F8A3E0C8CB
:1026F800240B12274B120C4990029CE0F8A3E0C867
:10270800240A12274B120C4990029CE02404F50C71
:10271800A3E03400F50D780C120C45E9F50C780CA3
:10272800120C49780B120C49A90AAC08AD09EEFA4B
:10273800EFFB1202B374061209E0800279017F06EA
:10274800020B04F582E83400F583E0F50C780C22DE
:1027580074F7120A32E9FE122A7B601EEE700C1220
:1027680028827401F0F91202C5E9FEEE60087A00C9
:102778007B00F91202717901800279000225D27476
:10278800EC120A32890A122A777003022874122876
:1027980082E06401600302284712027DE960557AED
:1027A800017B001201FF8A0C8B0DE4F50EF50FC3B7
:1027B800EA9442EB9400402B90801E120C587A0247
:1027C8007B009002A4E0F912055F74041209E0E5A9
:1027D8000C24C4F8E50D34FFF99002A2E8F0A3E94F
:1027E800F0804190801A78101208C3780C79101282
:1027F800071580107A007B001201FF8A0C8B0DE40C
:10280800F50EF50FE50C450D450E450F6016780CD5
:10281800120C417A027B009002A4E0F91205597467
:10282800041209E012287C7402F0900285E0700B13
:10283800EEFAEFFBA90A120271802DE4F0802990CC
:102848000285E070237A037B001204B1EA4B60151D
:102858008A828B8374D0F0A3E50A1228DA740412F2
:1028680028871204BD1202777901800279007F0C53
:10287800020B04F090029CE0F8A3122894A322F023
:1028880090029CE0F8A3122894E0F922E0F58388EE
:10289800822274F6120A32E9FEEAFF900476E0F426
:1028A800602B7A047B001204B1EA4B60208A828B89
:1028B8008374D0F0EFA31228DA7402F0EE8A828BC8
:1028C80083A3A3A3F0900476E0F91204BD7F02026B
:1028D8000B04F08A828B83A3A32274F4120A32E9D0
:1028E800FE74016E600302297E9002A2122A7E60A5
:1028F80006900285E06012122A7B70030229A11259
:102908002A70F91202410229A19002A2C3E0943C64
:10291800A3E09400400D9002A2E024C4F0A3E034A8
:10292800FF80507A027B009002A4E0F912056590BE
:1029380002A2E0F508A3E0F509E50875F0E8A4C5EA
:1029480008A8F075F003A428F875F0E8E509A428AC
:10295800F509E4F50AF50B7808120C417A027B00B8
:102968009002A4E0F912055974041209E09002A239
:10297800E4F0A3F08023122A7B601E900281E0A27B
:10298800E250167A027B009002A4E0F912056590E5
:1029980002A2E4F0A3F012027780007F04020B0485
:1029A80090029EE0FAA3E0FB22E0F8A3E0F922748B
:1029B800F4120A32122A75602F7A057B001204B1CC
:1029C800EA4B601D8A828B8374D0F0A3E508122835
:1029D800DA74031228DAA3EEF0A3EF1228871204A0
:1029E800BDE50860031202770229A3C082C08312E2
:1029F8002A7B601090029C1229AB12051D90029C44
:102A0800E4F0A3F002252974F6120A3274FF1209C1
:102A1800CA90029E122A7E604090029EE02401F530
:102A280008A3E03400F5097808120C4590029E12BC
:102A38002A6DFC7402120A16AA82AB83790112026B
:102A48002F74021209E08A828B83E582458360092C
:102A5800E0A2E0500479018002790074011209E0D3
:102A68000228D5A3A3E0F8A3122894E0228908EA53
:102A7800FEEBFF90029C1229B1E8492274F4120A75
:102A88003274FC1209CA7F00900425E4F0900422F5
:102A9800F07E7D7508047509007808120C457402EB
:102AA800120A287A007B00EEF91205E9740212096D
:102AB800E090802278081208C385188285198378E7
:102AC800081206C17019900422E0600FF912067FFF
:102AD800EEF912067F900422E48001EEF08018855A
:102AE80018828519831208F9E8494A4B7004EEFFE9
:102AF8008005EEF912067F0EEEC3947F4095900490
:102B080022E07026EF7018797D1206739004237402
:102B180004F0A3E4F0900425E0601979008017F030
:102B2800120685EFF9120691800AEF6004F9120681
:102B3800791206857901022BD474F7120A3274FCD3
:102B48001209CAE9FE851882851983E4F0A3F0A367
:102B58007410F0A3E4F0AC18AD19FAFB12069D90BE
:102B68000425E07005EE900422F074041209E07F59
:102B780001020B0474F4120A3274FF1209CA89089C
:102B8800900425E070321205F57E007F00750A0179
:102B9800750B00780A120C457402120A28EEFAEF37
:102BA800FBA9081205E974021209E0851882851943
:102BB80083E0F460089004257401F0800B0EEE7039
:102BC800010FC3EF940840C5740180027404120910
:102BD800E07F04020B0474F4120A3274FF1209CA6B
:102BE80089087E007F00750A01750B00780A120CAF
:102BF800457402120A28EEFAEFFBA9081205E974D7
:102C0800021209E0851882851983E0F46007A90893
:102C1800120679800B0EEE70010FC3EF940840C6C0
:102C280080A674F4120A3274FC1209CA7EFC7F076B
:102C38007508047509007808120C457402120A28F0
:102C4800EEFAEFFB900422E0F91205E9740212098A
:102C5800E090804678081208C38518828519837821
:102C6800081206C1700AEE24FCFEEF122D0950C0AE
:102C7800122FD7E8F0A3E9F0022BD474F4120A3229
:102C880074FC1209CA8908EAFEEBFF8C09EE24FCE1
:102C9800FEEF122D094063750A04750B00780A12BD
:102CA8000C457402120A28EEFAEFFBA9081205E98E
:102CB80074021209E07402120A16122EC4851882D0
:102CC80085198385090AE0650A7002A3E0700AEE97
:102CD800C398FAEF9400FB8025E9548070AFE8248C
:102CE80004FAE439FBC3EE9AEF9B400EEEC398F862
:102CF800EF99F9E824FCFEE980987A007B00022B22
:102D0800D434FFFFC3EE9404EF94002274F0120A47
:102D18003274F31209CAE9851882851983F0750F90
:102D2800FF647D7005750E7E8003750E7D750A043F
:102D3800750B00900423E024FCFEA3E0022E3D74F2
:102D480003120A16A3E054806003022E2C740312A7
:102D58000A16850F08E065087002A3E07003022ECA
:102D68002C7403120A16E0F50FFCAA0AAB0BA90E85
:102D780012068B8B09EA45096003022E2C74051292
:102D88000A16122ECAF508EF99F5097407120A16E1
:102D9800E8F0A3E9F07401120A16E4F0A3F0750C48
:102DA80004750D00780C120C45740B120A28740374
:102DB800120A16E02508FAA3E03509FB900422E080
:102DC800F91205E974021209E07409120A2874015B
:102DD800120A16E0250AFAA3E0350BFBA90E120623
:102DE8009D7401120A16E02404F0A3E03400F07484
:102DF80007120A16C082C0837401120A16122EC462
:102E0800D083D082C3E098A3E09950927405120A47
:102E180016E02404F8A3E03400F9E50A28F50AE5E9
:102E28000B39F50B7405120A16122ECAF8EF99F928
:102E3800E824FCFEE9122D09405D900425E0707736
:102E48007508047509007808120C457405120A28DB
:102E5800EEFAEFFB7402120A16E0F91205E97402A1
:102E68001209E07403120A16E0F47003A3E0F46098
:102E780003022D477405120A16122EC454806007E7
:102E8800EE24FCFEEF80AEE82404F8500109C3EEFE
:102E980098EF99508F8020A90E120673900425E0B0
:102EA800700A900423E50AF0A3E50BF085188285E3
:102EB8001983E0F9120679740D022FCFE0F8A3E028
:102EC800F922122EC4EEC3982274F1120A3274FC4D
:102ED8001209CA890E8A088B098C0C8D0D7413127D
:102EE8000A16E0FE8015E5082404F508E43509F51E
:102EF80009E50C2404F50C5002050DEEFF74FF2FB4
:102F08001E04603D750A04750B00780A120C45749E
:102F180002120A28AA08AB09A90E1205E9740212BE
:102F280009E0780A120C45AC0CAD0D7402120A20A7
:102F38001204A574021209E0E970AB90042574012B
:102F4800F074041209E07F07020B0474F0120A32CD
:102F5800890AEAFEEBFF8C0E8D0F900425E0704D78
:102F68007508017509007808120C458E088F0974D8
:102F78000278081209A8890CF50D7409780C120951
:102F8800B7E5082400FAE509350DFB1205EF7402D0
:102F98001209E07508017808120C49AC0EAD0FEE65
:102FA800FAEFFBA90A12069774011209E0022FD260
:102FB800C082C08312066DE970047901800279002D
:102FC800D083D0820201321209E07F08020B04EE9E
:102FD8002404F8E43FF99004232274F2120A328997
:102FE800088C0C8D0D7509008982AE827F008A0AD3
:102FF8008B0B780A120C890203087631163071306F
:103008008B30C130F6300D312431423159317401E1
:103018006508600302317190049AE0F88C828D8310
:10302800E090049AF0E8601CE06003023199900394
:103038007EE06402600302319990037DE0F9120298
:1030480041023199E0700302319990037EE06401F6
:103058006008E0640360030231997A017B00900301
:103068007DE0F91204E102319974026508600302F7
:1030780031718C828D8312350090049BE8F0A3E9AE
:1030880002316EE9C3942040030231717C1F7D0038
:1030980079007A9E7B041204AB8E0A8F0B780A1291
:1030A8000C45AC0CAD0D7A9E7B0412049F74021281
:1030B80009E0EE90049D02316EE9C39420400302BA
:1030C80031717C1F7D0079007A877B031204AB8EF7
:1030D8000A8F0B780A120C45AC0CAD0D7A877B036E
:1030E80012049F74021209E0EE900386807874013E
:1030F800650870758C828D83E0F8C39405506AE882
:103108009003A6806174016508705E8C828D83E0EF
:10311800F8C394045053E89003A7804A74066508DE
:103128007047750A068F0B780A120C457AA87B033C
:1031380012049F74021209E080577401650870290F
:103148008C828D83E0F8C39408501EE89003AE800B
:10315800157401650870128C828D83E0F8C394049D
:103168005007E89003AFF080287509188023C3EA58
:103178009427EB940050177402650870118C828DA7
:1031880083E0FCA3E0FD1201F9E9F5098003750964
:1031980002A9097F06020B0474F4120A32ECFEED50
:1031A800FF7508008A0A8B0B780A120C8900030A3B
:1031B8004F32D031D531E631EB31FB310A32193299
:1031C8001E3223324032453290037F8073750A06DF
:1031D800750B00780A120C457C807D03804C9004A6
:1031E8009A805D90049B1235008E828F83E8F0A34D
:1031F800E9806890049D123270120C457C9E7D0413
:103208008028900386123270120C457C877D0380DB
:10321800199003A6802A9003A78025750A06750BC6
:1032280000780A120C457CA87D03EEFAEFFB120425
:103238009F74021209E080299003AE80039003AFC7
:10324800E08E828F838014C3EA9427EB9400500E9B
:103258001201FF8E828F83EAF0A3EBF080037508DA
:1032680002A9087F04020B04E0F50A750B00780A2E
:103278002274F6120A3290037EE07037EA4B600837
:103288009003B0EAF0A3EBF0E4F508F5097808122A
:103298000C457808120C457C007D007B0090037F6C
:1032A800E0FA90037DE0F91205AD74041209E079A3
:1032B80000800279117F02020B0474F7120A32E9C6
:1032C80090037DF090037EE4F012028390037F74F4
:1032D80001F09003A67403F09003A7E4F09003AE06
:1032E8007407F09003AFE4F07F01020B0474F4124A
:1032F8000A3274F61209CAEAFEEBFF5480602C9079
:10330800037DE0F91204C98A088B09EA45096013AC
:103318008A828B83E064D070031205A7AA08AB09E0
:103328001204B7EEFAEF64800233CAEEA2E040035B
:103338000233CD90049AE070030233C59003A6E0EF
:10334800851882851983F09003A7E0C0E074011204
:103358000A16D0E0F07508067509007808120C45C1
:103368007CA87D037404120A16AA82AB8312049FF8
:1033780074021209E09003AEE0C0E07408120A1665
:10338800D0E0F09003AFE0C0E07409120A16D0E074
:10339800F0AA18AB1990037DE0F9120235E9601D17
:1033A80090037E7404F01233D960121234F78882C5
:1033B8008983E582458360057904120A30EE640149
:1033C800FAEFFB80047A007B00740A1209E00232EB
:1033D8006B9003B0123500E8492274F4120A328A5D
:1033E800828B83A3A3E0F8EA2403FCE43BFD8A82F2
:1033F8008B83A3AE82AF83E8601224FE60691470E9
:10340800030234A91470030234A98058E07031759E
:1034180008067509007808120C457A807B031204A7
:103428009F74021209E090037E7401F07C9E7D0473
:1034380090049DE0FB7A0190037DE0F912023BE9DC
:10344800600690037E7404F01233D960171234F7C3
:10345800E8FAE9FBEA4B600C90037EE0F98A828B7C
:1034680083120A3002326BE0702E8C828D83E0600A
:103478001B7C877D03900386E0FB7A0090037DE048
:10348800F912023BE98E828F83F0800C7A017B006F
:1034980090037DE0F91204E18E828F83E070A380AF
:1034A800C3E0709E740368700790037E740280976F
:1034B80090049B1233DC90049A602AE060299004FF
:1034C8009BE0F508A3E0F509E4F50AF50B78081286
:1034D8000C417A017B0090037DE0F91205597404D0
:1034E8001209E08002E4F090037E740302344FE096
:1034F800F583888212350022E0F8A3E0F922C08221
:10350800C083900342E4F090034174FFF090033EBF
:10351800F090033DE4F090033CF090033FF0A3F0FB
:103528000239B574F0120A3290033FE0F508A3E0BF
:10353800F509E5084509700612034F02363E85086D
:1035480082850983E014600A14600724FE60030280
:10355800363EE0F91203A98A0A8B0BAE0AAF0BEECE
:1035680065087003EF6509700302363B8E828F830E
:10357800E06401600302363E1203611204098A08FE
:103588008B098C0A8D0B750C0A750D00750E00756C
:103598000F007808790C12083C7808120C418E82CA
:1035A8008F83A3A31208E112135174041209E0E9EE
:1035B80070771204098A088B098C0A8D0B750C0325
:1035C8007808790C12083C750CFF750DFF750EFF15
:1035D8007808790C12089D8E828F83A3A37808122D
:1035E80008D29002C7E06402702C8E828F83A3A356
:1035F800750800750908750A00780812084F7808D8
:10360800790C12089DEE240EF582EF3400F58378CC
:10361800081208D28013EE240EF582EF3400F583E9
:1036280074FFF0A3F0A3F0A3F090033E7401F0EE52
:10363800FAEFFB1203A37F08020B0474F0120A329C
:10364800EAFEEBFFEE2402F8EF3400F98808890956
:10365800EE2406F8EF3400F9880A890B8882F5838E
:10366800120C5C8508828509831208E11203EB7449
:10367800021209E0850A82850B83120C5C85088298
:103688008509831208E11203DF74021209E0EE24AF
:103698000EF582EF3400F5831208E11203F18E82F1
:1036A8008F83E06440701CEE2412F8EF3400F98830
:1036B800828983E0906064F088828983A3E09060C7
:1036C800658006906064E4F0A3F090033FEEF0A3F9
:1036D800EFF0EE2416F582EF3400F583E0F8A3E06E
:1036E800F5838882120A30906054E4F0A3F0A3F0C6
:1036F800A3F0A3F0A3F0A3F0A3F0A3F0A3F0A3F02A
:10370800A3F0906182E0C2E6F07591BFEE2415F552
:1037180082EF3400F583E064017003120421E5E1CF
:1037280070FCEE2414F582EF3400F583E0F46003B6
:10373800E0F5E1EE2415F582EF3400F5837401F02D
:103748009002CDE0640170731204098A088B098C19
:103758000A8D0B7808120C418E828F83A3A312085E
:10376800E11213AA74041209E08A088B098C0A8DE5
:103778000B750C05750D00750E00750F007808792E
:103788000C12071574037808120804E50824F4F5E8
:1037980008E5093401F509900338E06003120505CE
:1037A800E4F50AF50B7808120C417A207B009002A8
:1037B800C6E0F912055974041209E002363E74F0A5
:1037C800120A32890874FF6508702A90033DE05494
:1037D8000770030238E4900341E06404700DA3E02D
:1037E800640170257A417B030238E8E0640160EEE9
:1037F800E0640260E9900341E06508700CA3E064AE
:103808000170067E417F0380127E007F0090034195
:10381800E06508700AA3E06401700478018002780A
:1038280000E914600A14603424FE60520238E490FF
:103838000341E064027008A3E06401700D805AE05F
:1038480064047006A3E06401604FE8A2E05006EE4D
:10385800FAEFFB80047A007B000238E8900341E02D
:1038680064047008A3E06401700D802DE0640170A9
:1038780006A3E064016022E8A2E05060805890034B
:1038880041E064017008A3E064017045800BE064C6
:1038980002703EA3E064017038E8A2E040030237FA
:1038A800ECA3750CF6750DFF750EFF750FFF780C00
:1038B80012084F780C120C418E828F83A3A3120832
:1038C800E112135174041209E0E960030237EC8035
:1038D80005E8A2E05006EEFAEFFB80047A007B00D0
:1038E80002363E74F7120A32E9FE900342E0705B3A
:1038F8007401F0EE900341F012040990034312089A
:10390800ED900347E4F0A3F090034F74FFF0A3F0A9
:10391800A3F0A3F09003557401F0A3F0A3E4F0A37F
:10392800F090033DE04EF090033CE004F064016049
:103938000A74806E600574406E700A90033F74418B
:10394800F0A37403F07A417B0380047A007B007F44
:1039580001020B04C082C0838A828B83E0F8A3E053
:10396800F98A828B83E4F0A3F088828983A3F088A4
:10397800828983E0F4F890033DE058F090033CE03E
:1039880014F0700B90033FE4F0A3F09002C7F080AE
:103998001CC082C08390033CE0600A90033FE0FAB9
:1039A800A3E0FB80047A007B008002E0F9D083D09A
:1039B80082020132C082C083E9F8900341E0687056
:1039C80005A3E0F98002790080E3C082C0839003F8
:1039D8003C80D874F7120A327409120A16123C9005
:1039E800801C8C828D83E08A828B83F08C828D830D
:1039F800A3AC82AD838A828B83A3AA82AB83E8FEC1
:103A0800E9FFEE24FF18EF34FFF9EE4F70D4023CC3
:103A18005074F5120A32ECF8EDF9740B120A16E03C
:103A2800F508A3E0F509AC08AD09EC24FFF508EDAD
:103A380034FFF509EC4D602CEAFCEBFD8C828D839C
:103A4800A3AA82AB83E8FEE9FF8E828F83A3A882B4
:103A5800A9838C828D83E0FC8E828F83E06C60C6A4
:103A68007900800279017F03020B0474F6120A328E
:103A7800E9FE8C088D097808120C458E08AC087D83
:103A8800001206BB74021209E0023C5574F6120AD1
:103A980032EAFEEBFFEE4F603DEE2405FAE43FFB11
:103AA8001205178A088B09A808A909E84960278818
:103AB800828983E4F0A3F088828983A3A3EEF0A32C
:103AC800EFF088828983A3A3A3A374FFF0E82405F9
:103AD800FAE439FB80047A007B00023C55C082C0BE
:103AE80083EA4B700479058016123B7760047904E9
:103AF800800DEA24FBFAEB34FFFB12051D7900D098
:103B080083D08202013274F7120A327C00023C4DE3
:103B180074F7120A32E9FEECFFEA4B602190804A02
:103B2800E0F8EEC39840071204B77903803E123DCF
:103B380005123C5A7005123B7760071204B77905E5
:103B4800802AEEF074016F700DEAFCEBFD7A607B61
:103B5800031204D5800BEAFCEBFD7A607B031204A8
:103B6800CF7A007B80EEF91204E17900023C50EA3A
:103B780024FFF582EB34FFF583E0F42274F4120A93
:103B8800328908750A00750B007E007F00A2AFE439
:103B980033F509C2AF9003608011EE4F7004880AB4
:103BA800890BE824FBF582E9123D0B123C5A60238D
:103BB800E824FFF582E9123D0BE0650870DCEE4F62
:103BC8007006E8FEE9FF80DA7A007B80A908120413
:103BD800E1800D7A007B80A9081204E7EE4F60159A
:103BE800780A120C45EEFCEFFD7A607B031204DBC9
:103BF80074021209E0E509A2E092AFEEFAEFFB7F4A
:103C080004020B04E0FAA3E0FB2274F7120A32EA7A
:103C1800FEEBFFA2AFE433FAC2AFEC24FBF582ED72
:103C2800123D0BE4F0A3F08003123D108E828F83C7
:103C3800123C5A70F48E828F83ECF0A3EDF0EAA266
:103C4800E092AF80031204C37F01020B047F0202DB
:103C58000B04123C90E8492274F7120A32E5A8FED8
:103C6800C2AF8A828B83123C90EC24FBF582ED1262
:103C78003D0BE8F0A3E9F08A828B83ECF0A3EDF02A
:103C8800EEA2E7A2E7023C49E0F8A3E0F92274F4C7
:103C9800120A32A2AFE433FEC2AFEC24FBF8ED34D3
:103CA800FFF9880889098882F583123C908A828BFB
:103CB80083E0F50AA3E0F50BEC650A7003ED650BEC
:103CC80070068A828B838012740C120A16E0FAA39B
:103CD800E0CA24FBF582EA123D0BE8F0A3E9F0857F
:103CE8000882850983E4F0A3F0EC24FFF582ED1245
:103CF8003D0B74FFF0EEA2E092AF023C07EA24FB12
:103D0800F582EB34FFF58322E824FBF8E934FFF968
:103D1800E8FEE9FF2274F7120A32E9FD90804AE0D2
:103D2800F8EDC398502AE5A8FEC2AFED29F8E433B0
:103D3800F9900374E028FCA3E0398C82F583E04A0B
:103D4800F0A3E04BF0EEA2E7A2E792AF7900800281
:103D58007903023C5074F7120A32E9FE90804AE077
:103D6800F8EEC3985022E5A8FFC2AFEAF4FCEBF4E2
:103D7800FDEE29123E7CE05CF0A3E05DF0EFA2E7E7
:103D8800A2E792AF790080027903023C50E9F87407
:103D9800FF687006C2AF790080027907020132C05D
:103DA80082C08312050B900360E4F0A3F012054172
:103DB80012052312053B1205117900023B07C08248
:103DC800C0831204FF80FB74F4120A3275080012D3
:103DD80005051205E3A808E828123E7C123C5A7033
:103DE8000D050890804AE0F8E508C39840E7908000
:103DF8004AE0F8E508C398506CE5A8FCC2AFAE08E5
:103E0800EE2EFEE433FF900374E02EF8A3E03FF9B2
:103E180088828983123C0C88828983E4F0A3F0ECC1
:103E2800A2E7A2E792AFE508900498F0F974002E93
:103E3800F58274803FF583123E73120A309004981D
:103E480074FFF0E5A8F9C2AF900374E02EF8A3E080
:103E58003F8882F583E04AF0A3E04BF0E9A2E7A2AD
:103E6800E792AF8003120535023C07E0F8A3E0F5BE
:103E780083888222F8E433F9900374E028FAA3E0F7
:103E8800398A82F5832274F7120A32900378123E37
:103E98009FF07F01020B04E4F0A3F0A3F0A32274C7
:103EA800F1120A32890EEAFEEBFF12054D740F1269
:103EB8000A1678081208C3EA4B600D8A828B83A31E
:103EC800A378081208D2806A7A0D7B00120517EAD7
:103ED8004B605B8A828B83A3A3A3A3A3A3A3A3E5BD
:103EE8000E123F3FEEF0A3EFF08A828B83A3A378F4
:103EF800081208D28A828B83E4F0A3123F3FA3A35F
:103F0800A3123EA0F09003761242589003766017F1
:103F1800E0FCA3E08003E8FCE9FD8C828D8312427B
:103F28005870F38C828D83EAF0A3EBF080047A005A
:103F38007B007F07020B04F08A828B83A3A3A3A3D1
:103F4800A3A322C082C08390037680048C828D83D1
:103F5800E0FCA3E0FDEC4D60238C828D83A3A3A33A
:103F6800A3A3A3E06A7003A3E06B70E08C828D8347
:103F7800A3A3A3A3A3A3A3A3E06970D0ECFAEDFBCA
:103F8800024059C082C083EA4B600E8A828B83A3A9
:103F9800A3A3A3A3A3E4F0A3F002405974F6120A62
:103FA80032E5A8FFC2AF740A120A16120C5812059D
:103FB8004774041209E08B09A909EFA2E7A2E79266
:103FC800AFEA4960047900800279087F02020B0495
:103FD80074F2120A32A2AFE433FEC2AF740E120AB0
:103FE8001678081208C37808120C411205477404A1
:103FF8001209E0EA4B60128A828B83A3A3A3A3A3CE
:10400800A3A3A3A378081208D2EEA2E092AFEA4BCA
:1040180060047900800279087F06020B0474F412A8
:104028000A32A2AFE433F509C2AF12054D8A0A8BF2
:104038000BAE0AAF0BEE4F6003120553E509A2E081
:1040480092AFEE4F60047900800279067F04020B7C
:1040580004D083D08202013274F0120A3274F91249
:1040680009CA8A088B098C0A8D0B7403120A167800
:10407800081208D2E5A8F9C2AF90037878081208A8
:1040880062E9A2E7A2E792AF900376124258700362
:10409800024248900376E0FEA3E0FF7401120A167C
:1040A800E4F0A3F0750C00750D00A2AFE433851899
:1040B80082851983F0C2AFEE2402F50EE43FF50FB6
:1040C8007405120A1612425870257404120A16E072
:1040D800701D7403120A16E0F88E828F83A3A3E082
:1040E800C398400B8E828F83A3A3E0C39880378543
:1040F8000E82850F8378081208C37403120A167893
:10410800081206E650177403120A1678081208C334
:10411800850E82850F837808120889800A850E82A9
:10412800850F83123E9FF0EE2404F50AE43FF50B59
:104138001242527054850A82850B83124258704E7F
:10414800EE2409F508E43FF509850882F58312088D
:10415800F9E8494A4B604F8E828F83A3A3A3A3A398
:10416800A31242C760408E828F83A3A3A3A3A3A3F5
:10417800A3A3E0F91204E18508828509831208F9EE
:10418800850E82850F83120905124252700B850A2B
:1041980082850B83124258600D8E828F83A3A3A35E
:1041A800A3124256702E8E828F83E0F8A3E0F97432
:1041B80001120A161242C77005900376800B74012B
:1041C800120A16A3E0F5838A82E8F0A3E9F08E0CC0
:1041D8008F0D800A7401120A16EEF0A3EFF08E829A
:1041E8008F83E0FEA3E0FF851882851983E0A2E0B3
:1041F80092AFE50C450D6041850C82850D83124216
:1042080056702F850C82850D83A3A3124256702207
:10421800850C82850D83A3A3A3A3A3A31242C18502
:104228000C82850D83A3A3A3A3A3A3A3A3E0F912E0
:1042380004E1AA0CAB0D12051DEE4F60030240AC61
:1042480074071209E07F08020B048E828F83A3A3F0
:10425800E0F8A3E0F9E8492274F0120A32900376F4
:10426800124258603D9003761242C1750C8E750D4E
:10427800C2750EF5750F288A828B83A3A37808125E
:1042880008C3780C79081206D6500C85080C8509E5
:104298000D850A0E850B0F8A828B831242C7600E2A
:1042A80080D5750C00750D00750E00750F00AA0CF1
:1042B800AB0DAC0EAD0F02424DE0FAA3E0FB2212AB
:1042C80042C1EA4B22A2AFE433F8C2AF5394FEE5F1
:1042D80094A2E240FAE8A2E092AF75A70075A100A7
:1042E800759CFF75C30075A20075A30075A40075C1
:1042F800A50075A60075C31175A20075A30075A465
:104308000075A50075A60075C33375A20075A300D6
:1043180075A40075A50075A60075C34475A200753F
:10432800A30075A40075A50075A60075C32275A223
:104338002075A34E75A40075A50075A60075940890
:10434800A2AFE433F8C2AF439401E594A2E250FA75
:10435800E8A2E092AF439402020132A2AFE433F83C
:10436800C2AF5394FEE594A2E240FAE8A2E0024507
:10437800B3A2AFE433F8C2AF439401E594A2E2508C
:10438800FA80E8E8A2E7A2E792AF0243EBE5A4854A
:104398001882851983F0E5A5C0E07401120A16D0C9
:1043A800E0F0E5A6C0E07402120A16D0E0F074034B
:1043B800120A16E4F0E8A2E7A2E792AF8518828510
:1043C80019831208E174041209E0D083D082020133
:1043D80032E8A2E7A2E792AF851882851983E0FA4E
:1043E800A3E0FB740280E0C082C08374FC1209CA97
:1043F800851882851983EAF0A3EBF0A3ECF0A3ED0E
:10440800F0E5A8FAC2AF53A7BF75C33385188285F4
:104418001983E0F5A47401120A16E0F5A5740212D6
:104428000A16E0F5A67404120A16E0F8A3E0F97477
:1044380004120A16E8F0A3E9F07404120A16E0F56B
:10444800A27405120A16E0F5A375A1BF43A740EAB6
:104458008000A2E7A2E792AF0243CDC082C0837476
:10446800FE1209CA851882851983EAF0A3EBF0E5E4
:10447800A8F8C2AF53A7FD75A1FD75C303851882BF
:10448800851983E0F5A27401120A16E0F5A3E59CEC
:1044980054F04401F59C02438BC082C08374FC1223
:1044A80009CA851882851983EAF0A3EBF0A3ECF01A
:1044B800A3EDF0E5A8FAC2AF53A7BF75A1BF439C0F
:1044C8000F75C333851882851983E0F5A47401122A
:1044D8000A16E0F5A57402120A16E0F5A67404128D
:1044E8000A16E0F8A3E0F97404120A16E8F0A3E942
:1044F800F07404120A16E0F5A27405120A16E0F523
:10450800A3E59C54F04408F59CEA02445A74F4125A
:104518000A3274FC1209CA851882851983EAF0A345
:10452800EBF0A3ECF0A3EDF0A2AFE433F9C2AF5384
:10453800A7DF75A1DF7508FF7509FF750AFF750B01
:10454800FF85188285198378081206C17005439C77
:10455800F0802475C340851882851983E0F5A4741A
:1045680001120A16E0F5A57402120A16E0F5A6E58E
:104578009C540F4450F59CE9A2E092AF74041209D0
:10458800E07F04020B04E5A8C2AF53A7098015E534
:10459800A8C2AF53A709759CFF8009E5A8C2AF431D
:1045A8009C0F800375A109A2E7A2E792AF0201322E
:1045B800A3A3A3E4F0E8A2E7A2E792AF0243D2C024
:1045C80082C08374FC1209CAE5A8F8C2AF75C3009B
:1045D800E5A2024395C082C083E5A8F8C2AF75C3BF
:1045E80000E5A28A828B83A3A3A3A3F0E5958C821E
:1045F8008D83F0E5A38A828B83A3A3A3A3A3F0E50D
:10460800A48A828B83F0E5A5A3F0E5A68A828B8332
:10461800A3A3F08A828B83A3A3A3E4F0E5968C82FC
:104628008D83A3F0E5978C828D83A3A3F08C828D74
:10463800830245B8C082C08374FE1209CAE5A8F88F
:10464800C2AFE5C3F975C300E5A2E5A48518828564
:104658001983F0E5A5C0E07401120A16D0E0F089CC
:10466800C30243D974F0120A3275E181120439E9A0
:1046780070089002ECE0F912043F79011203C1E9D5
:104688006401600302482F900332E0F8A3E0F9E8E0
:10469800496010900332E0FAA3E0FB900331E0F99F
:1046A8001204E19002F0E06401600302477575E1CD
:1046B80091A3E02407F5D99002E1E0C4333354C054
:1046C8004406F5D978DF790288828983A3A3A3E019
:1046D800F5D988828983A3A882A983E864E5700351
:1046E800E9640270E39002F1E0601F78DF7902FA72
:1046F800E82413F582E93400F583E0F5D988828946
:1047080083A3A882A9831AEA70E6900311E024071C
:10471800F5D99002E1E0C4333354C04404F5D978A4
:10472800DF790288828983A3A3A3E0F5D9888289E7
:1047380083A3A882A983E864E57003E9640270E3AF
:10474800900311E0601F78DF7902FAE82433F582DC
:10475800E93400F583E0F5D988828983A3A882A982
:10476800831AEA70E675E1959002F0E4F012037F8F
:10477800E9FC9002DFE02402F8A3E03400F9E8FA4B
:10478800E9FB8A828B83EC75F0118485F008850833
:104798000CE4F50DF50EF50F780C12084F9002E9B0
:1047A800E0F508A3E0F509E4F50AF50B780C7908BB
:1047B80012083C7508FF7509FF750AFF780C79081F
:1047C80012089D8A828B83780C1208D29002DFE04F
:1047D800F8A3E0C82406F582E83400F583E4F0A3E2
:1047E800F09002DFE0F8A3E0C8240EF582E8340078
:1047F800F58374FFF0A3F0A3F0A3F09002DFE0F8D4
:10480800A3E0C82414F582E83400F5837415F09009
:1048180002DFE0F8A3E0C82416F582E83400F58347
:104828007473F0A37403F012039D7F08020B0474E1
:10483800F0120A3275E181120439E970089002EC2D
:10484800E0F912043F79011203C1E964016003022F
:10485800499C900332E0F8A3E0F9E849601090031E
:1048680032E0FAA3E0FB900331E0F91204E1900290
:10487800F0E06401706475E191A3E02407F5D99034
:1048880002E1E0C4333354C04402F5D978DF790239
:1048980088828983A3A3A3E0F5D988828983A3A802
:1048A80082A983E864E57003E9640270E39002F189
:1048B800E0601F78DF7902FAE82413F582E9340012
:1048C800F583E0F5D988828983A3A882A9831AEAA7
:1048D80070E675E1959002F0E4F012037FE9FC9030
:1048E80002DFE02402F8A3E03400F9E8FAE9FB8AE1
:1048F800828B83EC75F0118485F00885080CE4F54B
:104908000DF50EF50F780C12084F9002E9E0F50846
:10491800A3E0F509E4F50AF50B780C790812083CD0
:104928007508FF7509FF750AFF780C790812089D4C
:104938008A828B83780C1208D29002DFE0F8A3E019
:10494800C82406F582E83400F583E4F0A3F0900269
:10495800DFE0F8A3E0C8240EF582E83400F583749C
:10496800FFF0A3F0A3F0A3F09002DFE0F8A3E0C803
:104978002414F582E83400F5837414F09002DFE023
:10498800F8A3E0C82416F582E83400F5837473F0C0
:10499800A37403F002482FC082C08353BFEF79018C
:1049A8001203C1E96401700C7ADF7B021203B5902F
:1049B80002E8E4F075E1F112039DD083D082020190
:1049C80032C082C0839002AC74FFF0A3F0A3F0A3BE
:1049D800F0A3F0A3749FF0A3E4F0A37420F0900276
:1049E800AB14F0D083D0820201327F02020B047F25
:1049F8000A020B0474EE120A328A088B09890B8C9E
:104A08000E8D0F90035CE0700990035EE070030266
:104A18004AC89002A9E06003024AC8898285820CCC
:104A2800750D00E92407FAE43400FB1204B18A107A
:104A38008B11AE10AF11EE4F7003024AD97418658E
:104A480008700474206509600C7417650870047494
:104A5800206509701090035EE0600AF50A8E828F67
:104A6800837492800C90035CE0F50A8E828F8374C5
:104A780091F0A3740E124AFB8E828F83A3A3F08E4B
:104A8800828F83124C9EEE2405F8EF3400F9E8FA81
:104A9800E9FBEE2407F8EF124C71F0780C120C4584
:104AA800AC0EAD0F8A828B83E0FAA3E0FB12049F61
:104AB80074021209E0EEFAEFFBA90A1204BD801194
:104AC800780E120C45AC0B790E1202F5740212091D
:104AD800E00249F774F6120A32E9FE8C088D09786B
:104AE80008120C45EEFC79FF1202F574021209E077
:104AF8000249F2F09002AAE02274F2120A328909FD
:104B08008A0A8B0B8C0874072508FA74FF650960FC
:104B180004780380027802E82AFA7B001204B18A3A
:104B28000C8B0DAE0CAF0DEE4F7003024C238E8232
:104B38008F837401F0A374FFF0EE2402FAEF3400BF
:104B4800FBEE2404F8EF124C61E509124C57E024FF
:104B580002F8A3E03400F9890DA90B740E120A16A5
:104B6800124C9374FF6509603274032508888285A6
:104B78000D83124AFBC0E0124C28D0E0124C50E5DD
:104B88000A124C50A3E9F085080A750B00780A123E
:104B98000C458A828B83E024068066740225088887
:104BA80082850D83F08C828D83E0C0E0124C28D082
:104BB800E0F08C828D83A3E0C0E0124C3CD0E0F0A2
:104BC8008C828D83A3A3E0C0E0124C3CA3D0E012FA
:104BD8004C4B2406124C41124C4B124CA9E9F0855F
:104BE800080AE50A24FDF50AE434FFF50B780A12F1
:104BF8000C45EC2403FCED3400FD8A828B83E02411
:104C080008FAA3E03400FB12049F74021209E0EED4
:104C1800FAEFFB90035AE0F91204BD7F06020B0479
:104C2800124C2C228A828B83E0F8A3E0F5838882D9
:104C3800A3A3A322124C2CA322F582E83400F58307
:104C4800E50A22124C7DC822124C8AA3A3A3221281
:104C58004C5B22F08A828B8322124C71124C7DF5B8
:104C68008388827404124C8A223400F98A828B83E6
:104C7800E8F0A3E922124C8122F08A828B83124C3D
:104C88009922124C81F5838882A322E0FCA3E0FDDF
:104C980022E0F8A3E022A3A3A3E508F0A3E509F026
:104CA800222407F582E83400F58322C082C083C33A
:104CB800EA9427EB9400501674FF6C700374FF6D30
:104CC800600C124CF7ECF0A3EDF079008002790249
:104CD800024E09C082C083C3EA9427EB94005008AF
:104CE800124CF7124E1080047AFF7BFF024E09EA3D
:104CF800C333FAEB33FB74282AF58274043BF5833B
:104D08002274F7120A32E9FEEAFF7C107D0079006E
:104D18007A867B021204ABEE900427F0EF900281B2
:104D2800F01202A7E990028670057401F08004E48D
:104D3800F079127F01020B0474F6120A32E9FF7E41
:104D480000701EEA4B601A7508068E097808120C66
:104D580045EAFCEBFD7A8D7B0212049F740212096E
:104D6800E0900286E0640170130EEF70087402F0A0
:104D78001202AD8007E4F0EFF9120223EEF97F0288
:104D8800020B0474F7120A327E00EA4B603B8A82F7
:104D98008B83E07012124EBA900293E8F0A3E912E6
:104DA8004F51E0900295F0900286E06402701A0E6E
:104DB8008A828B83E0900286700474038001E4F099
:104DC8008A828B83E0F9120223EEF9024D3BC082FE
:104DD800C083E9F87900EA4B6025E86022EA2405F7
:104DE800F582EB3400F5837401687005E044C080F7
:104DF8000CE0543FF07403687004E0D2E6F00980D8
:104E080000D083D082020132E0FAA3E0FB2274F4DE
:104E1800120A328908900427E0F460507A0A7B006D
:104E28001204B18A0A8B0BAE0AAF0BEE4F603D122B
:104E38004EC17408F0900282E08E828F83A3A3A3F0
:104E4800F0750A06750B00780A120C457C967D02EF
:104E5800EE2404FAEF3400FB12049F74021209E0F6
:104E6800EEFAEFFB900427E0F91204BD900285E00A
:104E7800640170399002A5124EBBE8496018E0F54C
:104E8800838882A3A3A3124EBA88828983E58245C8
:104E9800836003120A3090801E120C587A047B003B
:104EA8009002A4E0F912055F74041209E07F04027D
:104EB8000B04A3E0F8A3E0F9228E828F8374D0F06C
:104EC800A3E508F08E828F83A3A32274F4120A321A
:104ED8008908900427E0F4606D7A0C7B001204B115
:104EE8008A0A8B0BAE0AAF0BEE4F605A124EC1E422
:104EF800F0750A06F50B780A120C457C8D7D02EEDA
:104F08002403FAEF3400FB12049F74021209E090A4
:104F18000293124EBB8E828F83A3A3A3A3A3A3A342
:104F2800A3A3E8F0A3E9F0900295E0C0E0EE240B1B
:104F3800F582EF3400F583D0E0F0EEFAEFFB900451
:104F480027E0F91204BD024EB5F08A828B83A3A331
:104F5800A322C082C08312042712042102518AC0EE
:104F680082C0839061B1E0C2E0F0E04403F0906158
:104F780088E0640470F802518AC082C0839061C0DE
:104F8800E0FAE4F0F8F9E82400F582E93460F58302
:104F9800E4124FB09480E9940140EBEA9061C0F0CC
:104FA80090618A7401025185F0124FB522E82401FC
:104FB80008E93400F9C3E822C082C0838A828B835F
:104FC800E09060161250CEA3E0906017124FFE904A
:104FD800601812500790601912500C90601A125005
:104FE8001190601BF0E99060157005E0C2E0800345
:104FF800E0D2E0025189F08A828B83A3A3E02212D7
:10500800501CE022125017E022125017A3E022127F
:10501800501CA322F08A828B83A3A3A32274F012CC
:105028000A32EA906005F0EBA3F0ECA3F07F0802E7
:105038000B04C082C083906001E00250AAC082C005
:1050480083740759906001025189C082C08374013A
:10505800699060037005E0D2E08003E0C2E002518D
:1050680089C082C083906003E054F949025189C025
:1050780082C083906061E00250AA74F0120A32EA9A
:1050880090619512511B025033C082C0839003591E
:10509800E4F0906022F0A3F0A37830F0A3D8FC02EB
:1050A800518AF902518AC082C083906014E054FC8E
:1050B800F0E049025189C082C083906009E402513E
:1050C800899061C07401F08A828B8322C082C08378
:1050D8007A007B60E970027A331250C9E4F0A3F0D9
:1050E800A3F09061C0025189C082C083E990600238
:1050F800025189C082C083E99060027005E0D2E362
:105108008003E0C2E3025189C082C083E99061C68E
:10511800025189F0EBA3F0ECA3F0ED22C082C0832A
:10512800E9601714601C14601E14602314602514B1
:10513800602A14603314603C80419061E9E054FCBB
:1051480080389061E9801C9061E9E0C2E0802B9092
:1051580061E9801B9061E9E0C2E1801E9061E9E0AD
:10516800C2E1F0E0D2E080129061E9E0C2E0F0E054
:10517800D2E180069061E9E04403F08005F0A3F0F5
:10518800A3F0D083D08202013274F0120A3274F88C
:105198001209CA8A088B098C0A8D0B90802E780810
:1051A8001206F6500C75084075099C750A00750BB7
:1051B80000AC18AD197404120A2012102B125313E4
:1051C800706C85188285198378081208C3125313E6
:1051D80060559003E37401F09003E27402F090804C
:1051E8003278081206F64008125313600302530976
:1051F800C2AFE51A70030253079003E2E0F91211F7
:10520800E8E9600302530712061F1206311253130E
:1052180070030252AC90803678081206F6507090EF
:10522800803A120C58806D9003E3E4F08058740CB7
:10523800780812081D90803E780C1208C378087907
:105248000C1207958518828519831208F9E8494ACE
:105258004B601B85188285198378081206E6500E64
:1052680085188285198378081208C30251DA120654
:105278004F7404120A161208ED9003E3E4F0125377
:105288001360030251E09003E27403F00251F078D6
:1052980008120C417408120A161208E11206497421
:1052A800041209E053BEFC9003E2E042BEE5ADA261
:1052B800E050FA751A01E5A8FEE5B8FFE59AF50889
:1052C80053A82053B820539A12D2AF12063D900328
:1052D800E3E064017006A2C74002E4F08EA88FB82C
:1052E80085089A9003E2E0640370047901800279EA
:1052F800009003E3E0FA121281120637120625D253
:10530800AF74081209E07F08020B04E50845094557
:105318000A450B2274F4120A3274FC1209CA851861
:1053280082851983EAF0A3EBF0A3ECF0A3EDF0C2B9
:10533800AD7410120A1678081208C39080427808D3
:1053480012084F851882851983780812086274023A
:10535800120A16E0F5977401120A16E0F5968518F8
:1053680082851983E0F595C2C7D2AD74041209E0AD
:105378007F04020B04C082C08374FC1209CAE5953D
:10538800851882851983F0E596C0E07401120A1623
:10539800D0E0F0E597C0E07402120A16D0E0F0748D
:1053A80003120A16E4F08518828519831208E1743D
:1053B800041209E0D083D082020132020132125570
:1053C80010AC82AD8322C082C08374F91209CA74FA
:1053D80001120A16AA82AB8312030D1254E7790749
:1053E8007A097B101202E979007407025529C082F4
:1053F800C08374FC1209CA851882851983E4F004F5
:10540800120A16741BF07402120A16E4F0740312DE
:105418000A16740C12542D7A027B201202E97900C4
:1054280074040255291253C679042274F4120A32FC
:1054380074FF1209CAE9FE740D120A16E0F9740E17
:10544800120A16E0FF740F120A16E0F508A3E0F539
:10545800097411120A16E0F50A7412120A16E0F518
:105468000B780B120C49780A120C497808120C4573
:10547800EFF5087808120C49E9F5087808120C4984
:10548800EEF912031374061209E01254F47A067B3B
:10549800201202E9790074011209E07F04020B046A
:1054A80074F7120A3274FF1209CA1203191254F45B
:1054B8007A0802551874F7120A3274FF1209CA12D0
:1054C80003251254F47A0902551874F7120A327433
:1054D800FF1209CA12031F1254F47A0A025518E976
:1054E800851882851983F0AC82AD8322E9851882FC
:1054F800851983F0AC82AD837901221209E07F021D
:10550800020B047403025529F08518828519832239
:105518007B201202E9790074011209E07F01020B75
:10552800041209E0D083D0820201321253C67903F3
:105538002274F6120A3274F71209CA85188285197C
:1055480083E4F0750808F5097808120C45EAFCEBC5
:10555800FD7403120A16AA82AB8312049F74021206
:1055680009E0851882851983AC82AD8379097A1898
:105578007B201202E97409025503C082C08374FDBE
:105588001209CA851882851983E4F004120A167470
:1055980004F07402120A16E4125533FA7BFC120264
:1055A800EF02550BC082C08374FD1209CA851882A8
:1055B8008519837401F0120A167404F07402120A31
:1055C80016E41255337A0180D3C082C08374FD1269
:1055D80009CA8518828519837416F07401120A168F
:1055E8007404F07402120A16E41255337A1602553E
:1055F800A4C082C083900CD3E4F0A3F0900CD574BF
:10560800D5F0A37404F09004D57448F0A37402F0A4
:1056180090071DF0A37480F0A374B4F0A37405F090
:10562800D083D08202013274F6120A327A017B00EA
:10563800120517E5A8FEC2AFEA24FEF8EB34FFF91D
:10564800900CD5E8F0A3E9F012051D90036C7401E5
:10565800F0EEA2E7A2E792AF7F02020B0474F21207
:105668000A327C007D007F00EA2402FAE43BFBA2B8
:10567800AFE433FEC2AF90036CE06008EA9411EB2C
:105688009400500A900CD5E0F8A3E0F98004781F44
:10569800790788828983E0F508A3E0F509548060DA
:1056A800057F00025742EFA2E0507C8C828D83E098
:1056B800F50AA3E0F50B5480F50DE50A2508F50871
:1056C800E50B3509547FF509E50D4509F5098C8287
:1056D8008D83E508F0A3E509F0547FF509C3E508D3
:1056E8009AE5099B4054ECF8EDF9E8497003025734
:1056F800B088828983E0FCA3E0547FFDECC39AFC68
:10570800ED9BFDC3EC9404ED9400405DE82AF5821E
:10571800E93BF583ECF0A3EDF0EB4480FB8882894C
:1057280083EAF0A3EB804AE509547FFDC3E5089AB4
:10573800ED9B50B67F01E8FCE9FD88828983E0F59E
:1057480008A3E0547FF509E82508F8E93509F98840
:10575800828983E0F508A3E0F509E50845096003B7
:1057680002569A78007900803F88828983A3E044B2
:1057780080F090036CE06029900CD5E0FAA3E0FB80
:10578800E86A7002E96B701988828983E0FAA3E0FD
:10579800547FFBE82AFAE93BFB900CD5EAF0A3EB2F
:1057A800F0E82402F8500109EEA2E092AFE8FAE925
:1057B800FB7F06020B04C082C083EA24FEF8EB34A8
:1057C800FFF9A2AFE433FCC2AF88828983A3E05417
:1057D8007FF0900CD5E0FAA3E0FBE89AE99B50082B
:1057E800900CD5E8F0A3E9F0ECA2E092AF025628BD
:1057F800C082C083E990047D0259DD74F7120A3231
:10580800E99002A4F01204997F01020B0474F412C7
:105818000A328A088B09EB548060799002A4E0F977
:105828001204C98A0A8B0BAE0AAF0BEE4F605C8E6E
:10583800828F83E064917039A3E024F2602924D038
:10584800702F750B018E828F83A3A3E06402700F03
:105858001259CE600D1258E06008120A30800375A4
:105868000B00850B0A800612029BE9F50AE50A700F
:105878001390047DE0F4600CEEFAEFFBE0F91204FB
:10588800BDE96007EEFAEFFB1204B7AA08E5096460
:1058980080FB803FEAA2E050171259CE600C1258E4
:1058A800E060077A007B00120A30E5086401801A7C
:1058B8005402601B9002A51259D1600A1258E06088
:1058C800057901120A30E5086402FAAB0980047A06
:1058D800007B007F04020B041259B7A3A31259AD31
:1058E800E582458322790002013274F5120A327585
:1058F8000A018A828B83A3A3A3E0FEA3E0FF8E089C
:105908008F097808120CCF010008200A208B59074C
:105918000009105359022040590520375906208B99
:10592800590B2074590C206F590E20A659A35912EF
:1059380059BDF912021D80668A828B83A3A3A3A393
:10594800A3E0FAA3E0FB120211804B8A828B83A3A7
:10595800A3A3A3A31259ADA3AA82AB838882898388
:10596800E0F912020B802F1259BD60321259CE6035
:105978002D1259B71258E56025EAFCEBFDEEFAEF57
:10598800FB80109002A51259D160131259B7125812
:10599800E5600B120A30E9F50A8003750A00A90AC6
:1059A8007F03020B04E0F8A3E0F98882898322E0F0
:1059B800F5838882228A828B83A3A3A3A3A3E0F81A
:1059C800A31259B7E0229002A7E0F8A3E0F9E8494A
:1059D80022EAF0A3EBF0D083D082020132C082C069
:1059E800839002A580EBC082C0839003DCE4F0536F
:1059F800F3FD53FDFD53F5FE53FFFE43F7019003FE
:105A0800DDF0A3F09003DFF0D083D082020132747E
:105A1800F7120A32E99003E0F09003DDEAF0A3EB15
:105A2800F09003E0E06033538CFE438C0143AB02FB
:105A3800D2BD7589FD53ACF743AC0843AC01439A1A
:105A480002758BFE9003DFE06401701F7A107B0003
:105A58009003DBE0F9120565801153ABFDC2BD7AF6
:105A6800107B009003DBE0F91204E19003DF74017E
:105A7800F0FF020B0474F7120A32750800A2815075
:105A880003750820A2A05006120613E94208A908C7
:105A98007F01020B0474F7120A3279007E00A2819A
:105AA80040027920A2A050031206139003E0E07090
:105AB800099003DCE0697005802AE960010EE9902D
:105AC80003DCF0EEA2E0501C9003DDE0FAA3E0FB5B
:105AD800EA4B60107A009003DDE0F8A3E0F58388D4
:105AE80082120A3080AA74F7120A327E00EEFF7A18
:105AF8000179061205B974FE2AC394255005EED221
:105B0800E0803274B62AC3940F5005EED2E18025A6
:105B180074C42AC3940E5005EED2E3801874D92AAF
:105B2800C394155005EED2E4800B74A72AC3940CD5
