:020000040001F9
:1040000078370020C1410100D3410100D5410100B2
:1040100000000000000000000000000000000000A0
:10402000000000000000000000000000D741010077
:104030000000000000000000D9410100DB41010048
:10404000DD410100DD410100DD410100DD410100F4
:10405000DD41010000000000315A0100DD41010096
:10406000DD410100DD410100DD410100DD410100D4
:10407000DD410100DD410100DD410100DD410100C4
:10408000DD410100FB670100DD410100DD41010070
:104090001D680100DD41010097560100DD4101006E
:1040A000DD410100DD4101000000000000000000D2
:1040B0000000000000000000000000000000000000
:1040C00000F002F800F040F80CA030C808382418BE
:1040D0002D18A246671EAB4654465D46AC4201D140
:1040E00000F032F87E460F3E0FCCB6460126334232
:1040F00000D0FB1AA246AB463343184744370000B2
:1041000064370000103A02D378C878C1FAD8520751
:1041100001D330C830C101D504680C60704700007D
:104120000023002400250026103A01D378C1FBD8D3
:10413000520700D330C100D50B6070471FB5C04691
:10414000C0461FBD10B510BD03F03FFB1146FFF781
:10415000F5FF00F007FB03F057FB03B4FFF7F2FF96
:1041600003BC03F05BFB0000401E00BF00BF00BFAC
:1041700000BF00BF00BF00BF00BF00BF00BF00BF47
:1041800000BFF1D17047000070B505460C461646D9
:1041900002E00FCC0FC5103E102EFAD2082E02D32B
:1041A00003CC03C5083E042E07D301CC01C5361F3E
:1041B00003E021782970641C6D1C761EF9D270BD55
:1041C0000A4802680F210A430260094880470948EB
:1041D0000047FEE7FEE7FEE7FEE7FEE7FEE700003A
:1041E00005480649064A074B704700002405004071
:1041F000AD420100C140010078270020783700203F
:10420000782F0020782F002032483349086070470B
:104210003248008CC0B2012812D13048808C00078F
:10422000000F00280CD12D48806AF021084040285A
:1042300006D12A48C06A0840002801D101207047F1
:104240000020FCE72548008CC0B201282CD123486F
:10425000808C0007000F002826D12048806AF021BA
:104260000840002806D11D48C06A0840002801D136
:10427000012070471948806AF0210840102806D1B3
:104280001648C06A0840002801D10120F1E7134810
:10429000806AF0210840302806D11048C06A0840E2
:1042A000002801D10120E4E70020E2E710B5FFF784
:1042B000C9FF002805D00A480A494860C8130A49BE
:1042C0008861FFF7A5FF002802D001200749886018
:1042D00010BD00000024F40000200020C00F00F0FA
:1042E000DFFF07C000050040006C004000060040F2
:1042F000102001218140FE4AD16000BF00BFBFF302
:104300004F8FFC48FC49C860BFF34F8F00BF00BF10
:10431000FEE703460C4622461946F848FFF7E8FF39
:1043200010B50F2000F0B5FA0C2000F0B2FA102002
:1043300000F0AFFA0F2000F0B5FA0C2000F0B2FA4E
:10434000102000F0AFFA10BD30B5A1B00446012C2A
:1043500035D10322EA4919A8FFF716FF18A9C81D8D
:1043600000F043FB18A80078002827DD18A8007883
:104370001C2823DC18A80078C01CC1B200231A46F0
:1043800019A872DF054600BF2B46002B05D000BFE1
:10439000DCA2B3211846FFF7ABFF00BF1421DC48B5
:1043A00003F061F90320DA490870002048600872C0
:1043B0001920800108820020488200BF45E0002CBF
:1043C0003BD105210291D3480068019000F00EFD19
:1043D0000146684681713C2112A803F044F901218D
:1043E00010A84173018202A915913C2103A803F092
:1043F0003AF901216846018501A90B9103A912A888
:1044000001F05BF8054600BF2B46002B05D000BF2E
:10441000BCA2D5211846FFF76BFF00BF1421BC4892
:1044200003F021F90020BA49087048600872192089
:10443000800108821E20488207E000BF00BF00BF45
:10444000B0A2E2210020FFF753FF21B030BD10B52C
:10445000AF4873DF044600BF2346002B05D000BFE2
:10446000A8A2ED211846FFF743FF00BF10BD10B50D
:104470003DDF044600BF2346002B05D000BFA1A2AC
:10448000F5211846FFF734FF00BF10BD10B50446F4
:10449000122C02D100F08FFA0DE0082C02D100F0AE
:1044A0008AFA08E000BF00BF00BF96A2FF210431D6
:1044B0000020FFF71DFF10BD10B500BF964B974AB7
:1044C0000221974801F099F9044600BF2346002BCA
:1044D00006D000BF8BA2FF2114311846FFF708FF5A
:1044E00000BF00BF10BD1CB5002000900190FF214F
:1044F0009131684601804900418000218180FF217F
:104500009131C1807ADF044600BF2346002B06D0DC
:1045100000BF7CA2FF212E311846FFF7E9FE00BF45
:104520001CBD1E207F490880084680784008400056
:10453000887008468078022188437A498870084646
:1045400080781C2188430C30764988700846807832
:1045500020218843734988700720C8701020087193
:10456000704770B505462868002810D13B216E4879
:10457000008876DF044600BF2346002B06D000BF2C
:1045800060A2FF214E311846FFF7B2FE00BF70BD9A
:10459000034600BF5BA2FF2159311846FFF7A8FE72
:1045A00010B588B01C2101A803F05DF8002001902F
:1045B0000520400402908010039003216846017496
:1045C000002141820175594806905948079001A879
:1045D00002F007FB044600BF2346002B06D000BFB5
:1045E00048A2FF2170311846FFF782FE00BF08B0D5
:1045F00010BD70B504460026208814282DD006DC96
:1046000010280BD011280DD0132840D111E0172805
:104610001DD0192835D0522839D111E0A08842493F
:10462000088035E00020C0433F49088000F0C3F90E
:104630002EE03C4A00213C4800887FDF064627E008
:104640000022114638480088A9DF064620E03222C1
:10465000A11D384802F0A8FF1AE0364DAD1D29888B
:10466000E089814206D1002229462F48008881DF57
:10467000064605E0002211462B48008881DF0646E9
:1046800006E0A079002801D100F095F900E000BF14
:1046900000BF00BF3346002B06D000BF19A2FF2188
:1046A000AA311846FFF724FE00BF70BD10B50446BE
:1046B0002046FFF79EFF204602F067FB204600F0F1
:1046C00017FA10BD70B500BF1B4B50221B490820C4
:1046D00000F099FF054600BF2B46002B06D000BF17
:1046E00008A2FF21C4311846FFF702FE00BF27E0F1
:1046F000000500500400FA0500ED00E0EFBEADDE5D
:104700000C2000202E2E5C6D61696E2E630000006F
:10471000F42000202C780100AF480100660600005C
:1047200010200020042000200A2000206345010002
:104730009145010008210020854801003C2100200E
:1047400000BF764800F095FF044600BF2346002BCB
:1047500006D000BF724AFF21C8311846FFF7C8FDD6
:1047600000BF70BD1CB50120019000BF6D4A0A2139
:10477000082001F03BFB054600BF2B46002B06D06E
:1047800000BF674AFF21D9311846FFF7B1FD00BFCE
:1047900000BF00BF0020644B04220321009002F000
:1047A00041F8054600BF2B46002B06D000BF5C4AEF
:1047B000FF21DA311846FFF79BFD00BF00BF00BFA5
:1047C0005A49022001F09CF9054600BF2B46002BF8
:1047D00006D000BF524AFF21DB311846FFF788FDA3
:1047E00000BF00BFFFF768FEFFF79AFD01F063F816
:1047F000044600BF2346002B06D000BF484AFF21D5
:10480000E1311846FFF774FD00BF01A9122001F045
:1048100073F8044600BF2346002B06D000BF404A71
:10482000FF21E4311846FFF763FD00BFFFF74AFFA1
:1048300000F0DFFA68460079002818D0FFF753FE31
:1048400000F033FB044600BF2346002B06D000BF18
:10485000334AFF21EC311846FFF74AFD00BF002024
:10486000FFF772FDFFF79CFEFFF75BFE02E0012001
:10487000FFF76AFDFFF7EBFD00BF01F079FBFFF7E3
:10488000F6FDFAE710B52A4A0021084601F0CFFAF2
:1048900010BD01210522120707231B02D218830035
:1048A000D150704701218140224A916070477CB508
:1048B00004460D460094684605711F4A082101F020
:1048C000B6FA7CBD70B505460C4600BF002C01D180
:1048D000012000E000200346002B04D100BF17A2F6
:1048E0009821FFF705FD00BF00F039FE70BD70B5DF
:1048F00004460D46264600BF082D01D1012000E0E8
:1049000000200346002B04D100BF1AA29B21FFF711
:10491000EFFC00BF30793168884770BDAD460100BB
:10492000044701008C2100203C2200203424002078
:10493000C548010000050050EF4801002E2E5C2EF6
:104940002E5C2E2E5C2E2E5C2E2E5C496E636C75BA
:1049500064655C73645F636F6D6D6F6E5C736F66CF
:10496000746465766963655F68616E646C65722EF8
:10497000680000002E2E5C2E2E5C2E2E5C2E2E5CEF
:104980002E2E5C496E636C7564655C6170705F634C
:104990006F6D6D6F6E5C6170705F627574746F6E59
:1049A0002E6800008188FE4A118070470021C943AB
:1049B000FB4A1180704702F0D1FD044600BF254636
:1049C000002D06D000BFF7A261212846FFF790FC1A
:1049D00000BF00BF00BFBFF34F8FF648F649C86065
:1049E000BFF34F8F00BF00BFFEE770B505460C4612
:1049F000F248427F411C284602F0D6FDEF48407F36
:104A0000207070BD1CB501210191EC48417F0091DF
:104A1000EB4908886B4601AA0021A4DF1CBD70B5D4
:104A20004220E64908702021E64802F041FD044694
:104A300000BF2546002D06D000BFDAA284212846FB
:104A4000FFF756FC00BF00BF00232022DB49DD48F2
:104A500002F072FC044600BF2546002D06D000BFC0
:104A6000D0A287212846FFF743FC00BF00BF02F019
:104A700075FD044600BF2546002D06D000BFC9A223
:104A80008A212846FFF734FC00BF00BF70BD70B517
:104A90000546AC1D2088CC490988884210D1208B5E
:104AA00014280DDC228B21461A31C448401C02F028
:104AB0007BFD207EC1494877FFF7A4FFFFF7AFFFDA
:104AC0002088C2490988884211D1208B08280EDC31
:104AD000228B21461A31B948153002F065FD207E3F
:104AE0001430B6494877FFF78DFFFFF798FF70BD88
:104AF00010B504462088102804D0112806D050286C
:104B00000CD107E02046FFF74DFF08E02046FFF7F5
:104B10004DFF04E02046FFF7BAFF00E000BF00BFF2
:104B200010BD00B58FB01C2108A802F09CFD08A89C
:104B3000007802218843811C08A8017000780821B0
:104B40008843411808A80170007804218843011D9A
:104B500008A801709E480178684681729D490181CC
:104B60000020019000BF6846007901090901491C35
:104B7000684601710079F021884310306946087158
:104B800000BF00BF6846407901090901491C684619
:104B900041714079F021884310306946487100BF67
:104BA0006846807906218843811C68468171807936
:104BB00040084000401C69468871142103A802F097
:104BC00052FD02A8039001A804907C48407F14285D
:104BD00003DD14206946888203E07848407F6946F7
:104BE000888200216846C182142101837348401CD9
:104BF0000790754B03AA08A977480088A2DF0FB079
:104C000000BD00B58FB01C2108A802F02CFD08A83B
:104C1000007802218843811C08A8017000780821CF
:104C20008843411808A80170007804218843011DB9
:104C300008A8017066480178684681726549491C78
:104C400001810020019000BF684600790109090137
:104C5000491C684601710079F0218843103069468B
:104C6000087100BF00BF6846407901090901491C6D
:104C7000684641714079F021884310306946487197
:104C800000BF6846807906218843811C684681718F
:104C9000807940084000401C69468871142103A8AF
:104CA00002F0E1FC02A8039001A804904348407F71
:104CB000142805DD4148407F14386946888202E0A7
:104CC00000206946888200216846C182082101834C
:104CD0003A48153007903D4B03AA08A93E48008882
:104CE000A2DF0FB000BD00B58FB01C2108A802F0F4
:104CF000BAFC08A8007802218843811C08A801702A
:104D0000007804218843011D08A80170304801780B
:104D1000684681722F49891C01810020019000BFE3
:104D20006846007901090901491C6846017100794A
:104D3000F021884310306946087100BF68468079C9
:104D400006218843811C68468171142103A802F062
:104D50008AFC02A8039001A8049001216846818280
:104D60000021C1820121018314481D300790144B9A
:104D700003AA08A918480088A2DF0FB000BDF8B543
:104D800007461446069E00BF2546002D07D000BFEB
:104D900004A2FF2154312846FFF7AAFA00BF1DE004
:104DA000442000202E2E5C626C655F7572692E6354
:104DB000000000000400FA0500ED00E05C24002083
:104DC0003A2000204C2000202A2000203220002001
:104DD00042200020A77D00002820002000BFF8BD51
:104DE00010B50446204602F01EF910BD4B4800786D
:104DF00070477CB54A4800F045FC044600BF254694
:104E0000002D07D000BF474AFF216D312846FFF72C
:104E10006FFA00BF00BF02F068F9044600BF2546E4
:104E2000002D07D000BF3F4AFF2170312846FFF711
:104E30005FFA00BF00BF3C48009020216846818097
:104E40000121C180394902F089F9044600BF254695
:104E5000002D07D000BF334AFF2178312846FFF7E5
:104E600047FA00BF00BF3148406831490860084632
:104E70000068007842280AD01C212E4802F0F1FB7D
:104E800000202C49491E4877FFF7C9FD0CE01C2281
:104E900027480168491C274802F086FB244800681F
:104EA000407F2449491E48777CBD10B586B000205C
:104EB000C04321490880214B0FCB01AC0FC41749D7
:104EC00001A862DF0446002C02D0204606B010BDC7
:104ED000124801786846817519498182194A05A9E5
:104EE0000120A0DF0446002C01D02046EEE7FFF7AA
:104EF00018FE0446002C01D02046E7E7FFF781FEAC
:104F00000446002C01D02046E0E7FFF7ECFE044603
:104F1000002C01D02046D9E70020D7E7422000200E
:104F2000E14D0100A44D01007F4D01004C20002007
:104F3000482000205D24002044200020307801001B
:104F4000A67D000028200020F7B584B004460F4657
:104F500006980678B01C1F2803DC2079801C1F28C7
:104F600002DD0C2007B0F0BD1F20801B801E85B223
:104F70000295B11C781802A97DDF039003980028E0
:104F800001D00398EEE72068022808D1684600891E
:104F9000A84204DC09200190684605890BE008203E
:104FA00001902079002804D02079A84201DC2579DD
:104FB00001E068460589681CC2B23046711CCEB259
:104FC0003A543046721CD6B2019939540698017889
:104FD000A81C0818C1B2069801700020C2E7F8B5F5
:104FE00005460C462078001D1F2801DD0C20F8BD69
:104FF000684679DF0646002E01D03046F7E70321E8
:105000002278501C2070A95419212278501C20703D
:10501000A954207841196846008800F08BFA21785D
:10502000401820700020E2E7F8B505460F46164606
:105030001C466868002801D10720F8BD2078801C34
:10504000298840181F2801DD0C20F6E72878401C2D
:10505000C1B22278501C2070B1542178481C2070B5
:1050600077542A8823789819696802F09DFA207885
:105070002978401820700020DFE730B5034610780B
:10508000C01C1F2801DD0C2030BD02241578681CCF
:1050900010704C550A241578681C10704C55157802
:1050A000681C10704B550020EEE7FFB587B0064630
:1050B0001D46109C0020069020780590002747E0B0
:1050C000B900706841180A886846028149884181A0
:1050D000002203A902A864DF04900498002802D0EB
:1050E00004980BB0F0BD6846017B099881422ED12F
:1050F0000698002801D0002000E0022001902078CE
:105100006946097B4118019808181F2801DD0C2009
:10511000E7E70698002809D12078401C2070227803
:10512000511C08982170A85401200690207842193B
:1051300003A902A864DF04900498002801D0049811
:10514000CFE720786946097B4018207000BF7F1C9C
:105150003088B842B4DC0698002806D0217805983B
:10516000401C081AC1B2059829540020B9E7FFB5C0
:1051700081B0074615460A9E009602223846049BD7
:105180000299FFF792FF0446002C02D0204605B09A
:10519000F0BD0096102229463846049BFFF785FF94
:1051A0000446002C01D02046F1E70020EFE701463D
:1051B0000888062808DB08881922D201904205DDFC
:1051C0000888E14A904201D00720704748880628A5
:1051D00008DB48881922D201904205DD4888DA4A66
:1051E000904201D00720F0E70888D74A904208D0C3
:1051F0004888904205D008884A88904201DD0720FF
:10520000E3E70020E1E7F8B506460D4614462078AE
:10521000801D1F2801D90C20F8BD3046FFF7C7FFBD
:105220000746002F01D03846F6E705212278501CAA
:105230002070A95412212278501C2070A954227881
:105240005119308800F076F92178401820702278C2
:105250005119708800F06EF92178401820700020F4
:10526000DAE7F8B505460E4614462879801CC7B221
:105270002078801CC0191F2801DD0C20F8BD781C87
:10528000C1B22278501C2070B154FF212278501CEA
:105290002070B15422789119288800F04BF92178B8
:1052A00040182070A88800280EDDA868002801D1C9
:1052B0000720E3E7AA8823789819A96802F074F90F
:1052C00020782979401820700020D7E7FEB50746DE
:1052D0000E461446786B002801D10720FEBD002041
:1052E000019032E0796B0C22019850430D18287917
:1052F000801CC0B200900098401CC1B22278501CA3
:105300002070B15416212278501C2070B15422789C
:105310009119288800F00EF9217840182070A8888B
:1053200000280EDDA868002801D10720D6E7AA884A
:1053300023789819A96802F037F92078297940185C
:1053400020700198401CC0B201903820C15D0198C6
:105350008142C7DC0020C1E7F8B504460F46164677
:105360000025002030702068002809D032463946D8
:105370002046FFF7E9FD0546002D01D02846F8BD7F
:105380006079002808D031463846FFF728FE0546E8
:10539000002D01D02846F2E7208900280BDD334696
:1053A0003A46012120460830FFF73EFE0546002D13
:1053B00001D02846E3E7206900280BD000202169AE
:1053C000085632463946FFF758FE0546002D01D0F3
:1053D0002846D4E7A08A00280CDD3B46062202219D
:1053E000204614300096FFF7C2FE0546002D01D07E
:1053F0002846C4E7A08B00280CDD3B46072203218A
:1054000020461C300096FFF7B2FE0546002D01D065
:105410002846B4E7A08C00280CDD3B461522142159
:10542000204624300096FFF7A2FE0546002D01D04D
:105430002846A4E7E06A002809D032463946E06AE7
:10544000FFF7E1FE0546002D01D0284697E7206BC7
:10545000002809D032463946206BFFF702FF054687
:10546000002D01D028468AE73820005D002809DD9C
:10547000324639462046FFF729FF0546002D01D068
:1054800028467CE728467AE701460889002808D0A4
:10549000C868002805D0C868007804221040002899
:1054A00001D1072070470020FCE701460889002849
:1054B00001DD072070470020FCE7F3B593B00D46EF
:1054C0000021129111911398002814D01398FFF71E
:1054D000DBFF0446002C02D0204615B0F0BD12AA16
:1054E00009A91398FFF738FF0446002C01D0204685
:1054F000F3E709AE00E00026002D13D02846FFF7A1
:10550000D4FF0446002C01D02046E6E711AA01A9E9
:105510002846FFF721FF0446002C01D02046DCE797
:1055200001AF00E0002710A803793A46017A30461F
:1055300072DFD2E702460A70FF200002104000121C
:105540004870022070470000FFFF000070B506465B
:105550000C46154629462046FEF7DBFE70BDF8B521
:105560005A480078002800D1F8BD59480068002842
:1055700001D1012000E000200546564800680028BF
:1055800001D1012000E00020064600BF002D14D10B
:1055900068464EDF0446052C01D101250CE0002CA5
:1055A00006D000BF4CA269212046FEF7A1FE03E011
:1055B000474900980968884700BF002E1AD154480F
:1055C0000088009069465348006860DF0446052C57
:1055D00001D101260DE0002C06D000BF3EA28021A3
:1055E0002046FEF785FE04E04A480068394909680C
:1055F000884700BF002D02D0002E00D000E0C5E794
:1056000000BF00BFB0E7FFB581B00C4616461F468D
:10561000002C02D1072005B0F0BD20468107890F7C
:10562000002901D1012100E00021002901D107203A
:10563000F1E7384804603648068037480760374944
:10564000019810DF0546002D01D02846E3E7012030
:105650001E490870162023DFDDE710B511DF044670
:10566000002C01D0012000E00020184908702046DD
:1056700010BD0146002901D10E2070471548016078
:105680000020FAE70146002901D10E20704710489A
:1056900001600020FAE770B51F480068002811D0AB
:1056A0001D4800688047044600BF2546002D07D0EE
:1056B00000BF09A2FF2133312846FEF719FE00BFC3
:1056C00000BF01E0FFF74BFF70BD00005E2000202F
:1056D00064200020602000202E2E5C2E2E5C2E2EBA
:1056E0005C2E2E5C2E2E5C536F757263655C73644A
:1056F0005F636F6D6D6F6E5C736F66746465766902
:1057000063655F68616E646C65722E630000000003
:105710005C20002058200020542000204D5501001E
:1057200070B504468C480068002812D021788A4A57
:10573000A06812689047054600BF2E46002E06D08E
:1057400000BF86A229213046FEF7D2FD00BF00BF70
:1057500002E02078A168884770BDF1B582B00027CB
:10576000029C69468948007800F0DBFA01900198B4
:10577000002800D0FEBD8649009809680840074609
:10578000844800680099884307432046384004460F
:10579000002C19D0002512E00C2068437E490968CE
:1057A00046183178012088402040002805D0B06894
:1057B000002802D03046FFF7B3FF681CC5B2774817
:1057C00000788542E8DB00BF00BFD3E770B5044630
:1057D0000D467348006801F018F90646002E00D007
:1057E00070BD2046284302466E4801686C48006838
:1057F00001F0DAF8064600BFF2E7FFB583B00546D0
:105800000C461646052E02D2072007B0F0BD6248AE
:10581000056062480470634806604F490698086056
:1058200000205B4908605B4908602CE00C21614363
:105830004819027801924168029102998900052273
:10584000120707231B02D318019A9200995000BF38
:105850004178002901D0012100E000210278914027
:105860004B4A126811434A4A11604178002901D11C
:10587000012100E0002102789140464A126811435C
:10588000444A116000BF2046611ECCB20028CDD131
:10589000454B404802683E4801683C4800F06AF9C0
:1058A0000746002F01D03846AFE7404A00213C4868
:1058B00001F033F8A9E710B537480068002801D196
:1058C000082010BD3148007800F099F9F9E710B5CB
:1058D00031480068002801D1082010BD2B4800780D
:1058E00000F0FEF90446002C01D02046F5E72C48D4
:1058F000006801F08AF8F0E7F8B507460C46002684
:1059000025480068002801D10820F8BD69461F48D5
:10591000007800F006FA0546002D01D02846F4E78D
:105920000120B840064600983040002809D11948A7
:1059300000683040002801D0012000E000202070E5
:1059400008E0134800683040002801D0012000E042
:10595000002020700020D8E77C2000202E2E5C2E16
:105960002E5C2E2E5C2E2E5C2E2E5C536F75726379
:10597000655C6170705F636F6D6D6F6E5C617070A0
:105980005F627574746F6E2E6300000080200020CB
:105990007420002070200020682000206C2000204F
:1059A0008420002078200020CD5701005B570100A3
:1059B000F0B502460C46002037E00123834019462B
:1059C00023460B40002B2FD0D5680D40002D05D16C
:1059D00001235B04D5680D43D56004E003231B0459
:1059E000D5688D43D56005252D0707263602AD19EC
:1059F0008600AD5903263604B5430526360707272A
:105A00003F02F6198700F55105252D0707263602B6
:105A1000AD198600AD591D430526360707273F02FD
:105A2000F6198700F55100BF401C2028C5D3F0BDF2
:105A3000FEB5E44806690020E349C863002529E073
:105A400014206843E149096844180120A840E0494E
:105A50000968084000281BD0E068C04370402168F6
:105A60000840074639462046FFF7A2FFA068B0432A
:105A700038400090606830403840019000990198AB
:105A80000843002803D0226900990198904700BF7D
:105A9000681CC5B2CF4800788542D1DBFEBD10B589
:105AA0000146002029E014224A43C84B1B689A583B
:105AB000012383401A40002A1ED005221207072323
:105AC0001B02D2188300D25803231B049A430523D8
:105AD0001B07072424021B1984001A5105221207F0
:105AE00007231B02D2188300D25805231B07072463
:105AF00024021B1984001A51401C2028D3D310BD46
:105B000070B505460C46002C01D1072070BD20461B
:105B10008107890F002901D1012100E0002100291E
:105B200001D10720F2E7A9480460AB4805700020C6
:105B3000A8490870A6490860A74800781422504375
:105B40000146A248006801F08EFD0020C043A34931
:105B50008860062001218140A14A116000BF012117
:105B600000F0F9F80620012181409E4A116000BF33
:105B70000020CBE7F8B504460D4616461F4693486D
:105B80000068002801D10820F8BD002F01D10720AE
:105B9000FAE79048007890490978884201DB0420B0
:105BA000F2E7284630438B49097814225143874A4B
:105BB0001268505087480078142148438349096887
:105BC0004018456083480078142148437F4909689C
:105BD000401886607F480078142148437B49096853
:105BE000401807617B48007820707A480078401C94
:105BF000784908702078FFF752FF0020C4E7F0B51D
:105C0000024672480068002801D10820F0BD7148A2
:105C10000078824201DB0720F8E700206A4BD86356
:105C2000684804696A480068002802D158066B4B2E
:105C3000586001209040664B1B681843644B186005
:105C4000002314205043614D2D684019C36000218A
:105C500042E001238B401846142353435B4D2D68CB
:105C6000EB580340002B36D025460540002D02D0CE
:105C700003231B040EE001235B0414255543534EFC
:105C80003668AD19ED680543142656434F4F3F68FB
:105C9000F619F56005252D0707263602AD198E0089
:105CA000AD5903263604B5430526360707273F02BC
:105CB000F6198F00F55105252D0707263602AD1977
:105CC0008E00AD591D430526360707273F02F619FA
:105CD0008F00F55100BF491C2029BAD3002095E759
:105CE00010B5044639480068002801D1082010BDCD
:105CF00038480078844201DB0720F8E72046FFF7A8
:105D0000CEFE0120A040324909688143304801603D
:105D10000068002803D10120C007304988600020B6
:105D2000E5E710B5024629480068002801D108209F
:105D300010BD28480078824201DB0720F8E71420D4
:105D40005043224C246803191E4800691C682040F7
:105D500008600020ECE710B5002819DA224A030792
:105D60001B0F083B9B089B00D2588307DC0EFF23C8
:105D7000A3409A438B071B0E8407E40EA3401A43EB
:105D8000194B0407240F083CA408A4001A5118E07A
:105D9000144A03231B02D21883089B00D25883079E
:105DA000DC0EFF23A3409A438B071B0E8407E40EEF
:105DB000A3401A430B4B032424021B198408A4009C
:105DC0001A5110BD00050050406100409020002095
:105DD000882000208D2000208C20002000630040BF
:105DE00080E200E000E100E01CED00E030B5034699
:105DF000481CC004040C10468507AD0F002D01D1CE
:105E0000012500E00025002D01D1072030BD7A4892
:105E100002601019794D28600020794D2870794D65
:105E2000287079480380794801800020EEE7F7B5B3
:105E300084B00C467448008884426BDC744D0020AA
:105E4000039000F0A4F802900298012814D003A84F
:105E50002BDF0746022F01D172B60CE000BF01977D
:105E6000019F002F06D000BF6AA259210198FEF7BA
:105E70003FFA00BF00BF00BF6148007800F0B1F8F2
:105E800060490978884206D05D480578007800F0BE
:105E9000A8F85B4908700298012814D062B66846D9
:105EA000007B2CDF0746022F0CD000BF0197019F1B
:105EB000002F06D000BF57A261210198FEF718FA03
:105EC00000BF00BF00BF5248854221D0E9004A4AC6
:105ED0000698126850500498002811D0002C0FDD4D
:105EE000494909886943454A126888182246049935
:105EF00001F05AFBE800404909684018848005E039
:105F00000020E9003C4A126889188880002600E0D9
:105F1000042600E00926304607B0F0BDF8B5054676
:105F20000E46174605200090354800783549097817
:105F300088421BD033480478007800F052F8314989
:105F400008703148008860432C490968401828606F
:105F5000E00029490968401880883080E00026491F
:105F60000968085838600020009000BF0098F8BD0C
:105F70000EB504E068468188009A029890476A4608
:105F800001A902A8FFF7CAFF0028F3D00EBD10B583
:105F90002D484068C105C90D002920D00A46103A95
:105FA000104600280DDA284B1C330407240F083C48
:105FB000A408A4001B598407E40EE3401B069B0FB2
:105FC0000BE0224B032424021B198408A4001B5954
:105FD0008407E40EE3401B069B0FD8B210BD0420DB
:105FE000FCE7014609480088814201DA481C00E0CC
:105FF0000020C0B2704700009420002098200020AC
:106000009D2000209C2000209E200020A020002019
:10601000FFFF00002E2E5C2E2E5C2E2E5C2E2E5CA2
:106020002E2E5C536F757263655C6170705F636F79
:106030006D6D6F6E5C6170705F7363686564756CC5
:1060400065722E630000000000ED00E000E100E05A
:1060500010B5002819DAFA4A03071B0F083B9B0802
:106060009B00D2588307DC0EFF23A3409A438B0783
:106070001B0E8407E40EA3401A43F14B0407240FC0
:10608000083CA408A4001A5118E0EE4A03231B029E
:10609000D21883089B00D2588307DC0EFF23A3404D
:1060A0009A438B071B0E8407E40EA3401A43E54B6B
:1060B000032424021B198408A4001A5110BD10B532
:1060C0000446E148846003211120FFF7C1FF10BDA1
:1060D00010B501200004DD494860DC4940394860C2
:1060E000112000F0DDFC112000F0CCFC0120D8498B
:1060F00008602F20FEF738F810BD10B511200121DF
:106100008140D04A8032116000BF01200004CF4995
:106110008860CE49403988600120CD4948602F20F1
:10612000FEF722F810BDF0B5024628205043C94BB7
:106130001B68C118C8480068401C002802D1C64826
:10614000026059E0C4488B68006828246043C14C51
:10615000246800198068834217D8BF480068282344
:106160005843BC4B1B68C01880688B68C31ABA4878
:10617000006828246043B74C246800198360B6483F
:1061800000684862B448026036E08B68B24D2C6803
:1061900028680DE028254543AE4E3668AD19AD6838
:1061A0005B1B044628254543AA4E3668AD19686A2C
:1061B000451C002D07D028254543A64E3668AD194D
:1061C000AD689D42E6D3451C002D0CD028254543E3
:1061D000A04E3668AD19AD68EE1A282545439D4F8F
:1061E0003F68ED19AE608B60486228256543994E83
:1061F0003668AD196A6200BFF0BD70B50246964CB4
:106200002168084609E0904200D109E001462824AF
:106210004443904D2D686419606A441C002CF2D1EF
:1062200000BF441C002C00D170BD814209D18A4CB2
:10623000246828256C43874D2D686419646A864D4F
:106240002C6028244443834D2D686419A3682824B6
:106250004443804D2D686419656A28244C437D4E63
:106260003668A419656228244C437A4D2D68641958
:10627000606A441C002C0CD028244443754D2D68C2
:106280006419A468E51828244443724E3668A4199A
:10629000A56000BFC8E710B5112000F0FAFB10BDE3
:1062A00010B5142000F0F5FB10BD70B504466B4826
:1062B0000068002813D0694A216AE0691268904793
:1062C000054600BF2E46002E07D000BF64A2FF2166
:1062D00055313046FEF70CF800BF00BF02E0E1691F
:1062E000206A884770BDF8B55B480068401C0028EC
:1062F0003AD0002700F006FC0446654801682046B5
:1063000000F003FC06465448056811E02820684365
:10631000504909684418A068B04200D90BE0A06851
:10632000361AA068C719656A2046FFF7BEFF00BF8E
:10633000681C0028EAD100BF564800785649097801
:10634000884209D154480078401CC0B252490870B4
:10635000022801D1002008704F48007880004F4982
:106360000F50FFF79DFF00BFF8BD01464948007878
:10637000494A127890421DD046480078401C454A50
:10638000107010460078022801D10020107041489A
:1063900000788000414A105808603D4A0868126839
:1063A00080183B4A1060104600680002000A106026
:1063B000012070470020086000BFFAE7FEB52648BC
:1063C0000068019036480078009074E00098C000A2
:1063D000344909684418257869E0182068436168E1
:1063E0000F18681CC5B2A078A84200D100253868F3
:1063F000022802D0032857D10EE0282178684843AC
:10640000144909684618307E002804D07868FFF7E0
:10641000F4FE0020307648E00CE00F49096828229D
:1064200051430C4A12688818002101760A4A416AD1
:10643000116000BF08480068401C0028EDD134E01E
:106440001CED00E000E100E00015014040130140B8
:1064500000100140A8200020B4200020C820002007
:106460002E2E5C2E2E5C2E2E5C2E2E5C2E2E5C5341
:106470006F757263655C6170705F636F6D6D6F6E79
:106480005C6170705F74696D65722E63000000005E
:10649000B8200020C4200020C5200020BC200020FF
:1064A000AC200020B020002000BF00BF00BF6078FB
:1064B000A84292D100BF0098411EC9B200910028A5
:1064C00084D1FE4801680198814201D00120FEBDBF
:1064D0000020FCE7F0B50346002426E0F74E3668BE
:1064E00028277E43F64F3F68F01986689E4203D9FD
:1064F0008668F61A86601DE086689B1B86683419DC
:10650000002686600676ED4E3568EC4F466A3E60A2
:106510004669002E08D00E193602360AC660466952
:10652000066116684662156000BFE4480068401CBA
:106530000028D3D100BFF0BDFEB50746DF48006894
:106540000290E048007801906BE00198C000DE49BD
:10655000096845185DE0781C002807D03E462820D1
:106560007043D74909684418676A23E029781823DB
:1065700059436A6850182978491C29702978AA78E3
:10658000914201D100212970466828217143CC4AEB
:1065900012688C180168012902D1217E002900D0DF
:1065A00037E08168E160C168216101696161416929
:1065B000216200BFC549E0680968401A0002000A6C
:1065C000C349884208D2C149E068096800F09DFAD1
:1065D00021694018A06011E0BC48E168006800F043
:1065E00094FA009021690098814204D921690098A9
:1065F000081AA06001E00020A06000BF0020E06059
:10660000206101202076801E60623046FFF78BFDFE
:1066100000BF781C00289ED12878697888429AD1DA
:1066200000BF0198411EC9B2019100288DD1A34835
:1066300001680298814201D00120FEBD0020FCE7E4
:10664000FEB505469D480068401C002835D09B4893
:106650000068282148439A4909684018866800F074
:1066600051FA0290994804682146029800F04DFAC8
:10667000C01C0190681C002801D1FFF729FD01987A
:10668000B04201D2304600E0019804192402240AE5
:1066900020469049086000BF00F034FA009002994B
:1066A000009800F032FAC71C2046029900F02DFA3B
:1066B000874201D9FFF7EFFD01E0FFF71EFDFEBDA8
:1066C000FEB50020C0430190804804687B480768FD
:1066D0006846FFF74AFE0546FFF770FE0646002DA6
:1066E00005D001AA21460098FFF7F4FE0126019883
:1066F000FFF722FF002800D00126002E02D03846E6
:10670000FFF79EFFFEBD4170704770B502460B4615
:106710005078411C9078884200D10021107888423E
:1067200001D1002070BD196050781826704355685B
:106730002C182046F6E7FFB581B005460E461746F1
:10674000E900614A126888186946FFF7DEFF0446CF
:10675000002C02D1042005B0F0BD0120206066604D
:1067600000F0D0F9A060E760049820610A986061A9
:10677000E900554A126888180099FFF7C4FFFFF72F
:106780008FFD0020E7E7F8B504460E46E1004E4ACB
:10679000126888186946FFF7B8FF0546002D01D139
:1067A0000420F8BD022028606E60E100464A1268AD
:1067B00088180099FFF7A7FFFFF772FD0020F0E7A8
:1067C00038B50446E100404A126888186946FFF768
:1067D0009CFF0546002D01D1042038BD0320286010
:1067E000001F6860E100384A126888180099FFF7B6
:1067F0008AFFFFF755FD0020EFE710B5002036496E
:1068000008600021344841608160C1600020324945
:10681000403908604860FFF766FD10BD10B5FFF70E
:106820004FFF10BDFFB581B00E4617461C462046EF
:106830008107890F002901D1012100E000210029F1
:1068400002D1072005B0F0BD002C01D10720F9E7E7
:10685000FFF753FC21490A98086021480670184840
:10686000046000250CE0002128206843144A1268C7
:10687000115028206843124A1268801801766D1C56
:10688000B542F0DB28207043041903200D4908703D
:106890000D480460183400250CE0E9000A4A12682B
:1068A0008818002101704170877044601821794375
:1068B0000C196D1C032DF0DB002013E0B420002028
:1068C000A8200020AC200020B0200020B82000200C
:1068D000FFFF7F004015014040110140C82000200B
:1068E000A4200020C0438B49086000208A4908701A
:1068F0008A490870142000F0D3F803211420FFF710
:10690000A7FB142000F0BEF80198FFF7D8FB00F0B9
:10691000F9F883490860002094E770B503460C46F7
:1069200080480068002801D1082070BD002A01D1EC
:106930000720FAE7002B01D10720F6E700211CE031
:1069400028204843774D2D682858002814D1012568
:1069500028204843734E3668355028204843714DEF
:106960002D6840194460282048436E4D2D68401919
:10697000C26119600020D8E7491C6B480078814249
:10698000DEDB0420D1E710B500F092F8012802D038
:10699000032804D101E0002403E0012401E00224E3
:1069A00000BF00BF204610BDFEB504460D4616468A
:1069B0005C480068002801D10820FEBD5A480078D4
:1069C000844201D2052D01D20720F6E7282060433A
:1069D000544909680858012801D00820EDE728200B
:1069E00060435049096840184068012801D1284691
:1069F00000E000200746FFF7C6FF3B462A46214637
:106A000000960190FFF797FED7E770B5044645481A
:106A10000068002801D1082070BD434800788442F6
:106A200001D30720F8E7282060433E490968085849
:106A3000012801D00820EFE7FFF7A5FF0546214612
:106A4000FFF7A1FEE8E710B536480068002801D13D
:106A5000082010BDFFF797FF0446FFF7B1FEF8E7E7
:106A600010B5044600F04EF82060002010BD70B54F
:106A700005460E4614463146284600F046F820608A
:106A8000002070BDC206D20E01219140274A11603C
:106A90007047C206D20E01219140254A116070470D
:106AA000C206D20E01219140214A80321160704706
:106AB00010B520484068C105C90D002920D00A46FC
:106AC000103A104600280DDA1A4B1C330407240F25
:106AD000083CA408A4001B598407E40EE3401B06ED
:106AE0009B0F0BE0114B032424021B198408A40004
:106AF0001B598407E40EE3401B069B0FD8B210BD60
:106B00000420FCE70C48406870470246501A000217
:106B1000000A7047B4200020C4200020C5200020B7
:106B2000B8200020A8200020A420002000E100E0E0
:106B300000E200E000ED00E0001501400146488859
:106B4000B74A1288904206DB4888B54A528890427C
:106B500001DC012070470020FCE738B50546B1484C
:106B60000088B14988423BD0B0480078401CAF490A
:106B70000870AF48007B097888420FDBA849A94814
:106B8000008875DF0446002C07D0A94880690028DA
:106B900003D0A74881692046884721E00020A34907
:106BA0000870A348007C00280FD03B219D48008836
:106BB00076DF0446002C07D09D488069002803D06A
:106BC0009B4881692046884700BF99484069002852
:106BD00006D000200090964841696846884700BF6B
:106BE00038BD70B505461C2229469148FDF7CCFA00
:106BF000002090490870286800280BD00822884897
:106C0000296800F0D1FC86487ADF0446002C08D0C1
:106C1000204670BD82487BDF0446002C01D0204610
:106C2000F7E70020C0437F49088000207F490870B3
:106C3000814A00218148FFF770FEEAE710B57F48DE
:106C40000068FFF7E2FE10BD38B57D48FFF776FF1C
:106C5000002829D17748007800280AD07448406974
:106C6000002820D00020009071484169684688477C
:106C700019E06E480078002802D16D48456801E0AF
:106C80006B488568002229466C480068FFF78CFE37
:106C90000446002C07D066488069002803D0644869
:106CA0008169204688470AE061484069002806D08B
:106CB000012000905E4841696846884700BF002077
:106CC0005C49087038BD10B50446A0885549088055
:106CD000082221460E315A4800F066FC0020534934
:106CE00008705348C089002801D1FFF7ADFF10BDDF
:106CF00070B505460020C0434A49088000204B4932
:106D000008704E480068FFF780FE0446002C07D04C
:106D100047488069002803D0454881692046884754
:106D200070BD70B50546AC1D20884149C9898842AF
:106D300020D1208B02281DD100BF00BFA17EE27EA2
:106D4000120211430846C107C90F002902D0FFF7FC
:106D50007BFF0FE039480068FFF757FE0646002E1C
:106D600007D033488069002803D031488169304614
:106D7000884700BF70BD10B504460822A11D3048E9
:106D800000F012FCFFF760FF10BD10B5044620882C
:106D9000102806D0112808D012280ED0502810D163
:106DA00007E02046FFF78FFF0CE02046FFF7A0FF2B
:106DB00008E02046FFF7B5FF04E02046FFF7DBFFC1
:106DC00000E000BF00BF10BD38B5044608222146D0
:106DD000134800F0E9FB12487ADF0546002D1CD16C
:106DE0001748FFF7ABFE00280BD1012011490870AE
:106DF0000B490C48008875DF054601200B490870D7
:106E00000BE00B484069002806D00120009008489C
:106E100041696846884700BF0025284638BD000004
:106E2000CC200020D6200020FFFF0000D42000202E
:106E30007C240020E42000205B6B0100E020002087
:106E4000D8200020002314214143FE4A535414212A
:106E5000414389184B8002231421414389188B60D8
:106E60000023142141438918CB6014214143891820
:106E70000B611421414389188B80704710B50020A5
:106E8000F1490880EF49091F087048708870002494
:106E900003E02046FFF7D6FF641C1E2CF9D310BD7B
:106EA000FEB50F26E748001F007814214843E54946
:106EB0004418E0680190207804280CD1800600690D
:106EC00081B2019800F0D1FBDF49098845182846B6
:106ED00050DF064622E0207802281FD12769DA48D1
:106EE000008885027F19A08841190198081801902F
:106EF0006088401B0090012189020098884206D2D8
:106F0000009882083946019851DF064605E0FF22C5
:106F100001323946019851DF064600BF002E03D1E9
:106F20000120C849091F88703046FEBDFFB581B0F9
:106F30000646174600240425C248001F40781E2834
:106F40003AD0C048001F0078BE49091F4978401850
:106F5000C4B21E2C02DB20461E38C4B2142060438B
:106F6000B8490E5414206043401807611420604350
:106F70004118029805C8CA60886014206043B14A6D
:106F80008018049941801421614389180A988880E7
:106F90000025101F8078002807D1FFF781FF0546E4
:106FA000002D01D0112D00D10025A648001F4078EA
:106FB000401CA449091F4870284605B0F0BDF8B52B
:106FC0000446A048001F0078142148439D490D5CE9
:106FD000081F0078142148439A494018806800012E
:106FE0009A490E58042D01D1002007E09548001F52
:106FF0000078142148439349401840889149091F5B
:1070000000900978142251438E4A89180B69111F88
:107010000978142251438B4A8918084608302246C1
:107020002946B047F8BDF8B5054600268548001F3B
:107030008078012858D100208249091F8870022DCC
:1070400002D0032D4DD148E07E48001F0078142166
:1070500048437C4947187C480088401C7A4908808E
:10706000084600888002798888421DDB3046FFF799
:10707000A6FF7449091F0878FFF7E4FE0020724953
:1070800008807048001F4078401E6E49091F4870F4
:1070900008460078401C0870084600781E2803DB6C
:1070A000084600781E38087000BF00246548001F9D
:1070B0004078002809D0FFF7F3FE0446002C04D0E6
:1070C000112C02D02046FFF77AFF00BF2646002E83
:1070D00002D03046FFF773FF04E00D20FFF76FFF8B
:1070E00000E000BF00BF00BFF8BD10B5FFF7C6FE4F
:1070F00000205749088057484069401C002808D0A4
:1071000001221207126991B2524A506900F0ADFA99
:1071100002E0012000074069801E0121090709697A
:1071200089B248434C49086000204749088000BFA5
:107130000DE000210201454B99500201D218118146
:107140000201D21891810201D2185181401C0228FB
:10715000EFD3012041490870002010BDF8B5044666
:107160000D4600BF3D480078002801D10820F8BD39
:1071700000BF002C01D10E20F9E7002D01D10E2017
:10718000F5E72068002801D10E20F0E7A088012152
:107190000907096989B2884202DCA088102801DA4F
:1071A0000720E4E7E08800281DD02A484069401CF9
:1071B000002808D001221207126991B2254A5069AD
:1071C00000F053FA02E0012000074069012109079D
:1071D000096989B24843E188A28851431E4A12686E
:1071E0008918884201D20720C1E71948008802287F
:1071F00001D10420BBE716480088286016480068C3
:107200006860134909880901104A8918686848604C
:107210000F490988090120685050A0880C49098845
:10722000090189180881E088094909880901891834
:1072300048810027A688E1884E4300BF781C87B2AA
:1072400001200DE09C240020F0200020F4260020E6
:10725000E820002000100010EC200020F220002088
:107260000007006980B2B04205D201200007006922
:1072700080B2361A00E0002601200007006980B2C3
:10728000C44909684018C349086001200007006923
:1072900080B2B042D2D9C04800880001BF4940182E
:1072A0008781BD480088401CBB49088000205EE7FC
:1072B0003CB5034600BFBA480078002801D1082039
:1072C0003CBD00BF002B01D10E20F9E7002A01D1FF
:1072D0000E20F5E71868022805D218680001AF4CA7
:1072E0002058002801D10720EAE75C68186801945B
:1072F0000090019C18680001A84D4019008948437E
:1073000020180190009800012C4600194089009C2B
:107310002401641924896043009C24016419646871
:107320000019019CA04201D80720C9E7019C0098E0
:10733000546010600020C3E7F8B504460D461646B9
:107340001F4600BF96480078002801D10820F8BDEC
:1073500000BF002D01D10E20F9E7002C01D10E2035
:10736000F5E72068022805D2206800018B490858FB
:10737000002801D10720EAE720680001874940186A
:10738000408921680901854A89180989484321688B
:1073900009018918496840186168884201D80720A6
:1073A000D5E7002E06D0206800017C4940180089EE
:1073B000B04201DA0720CAE7F01921680901774ACB
:1073C00089180989884201DD0720C0E7284600F0B6
:1073D000D8F8002804D0E81900F0D3F8002801D12B
:1073E0001020B4E733462A46214602200097FFF7D3
:1073F0009DFDACE7F8B507460C4615461E4600BF96
:1074000067480078002801D10820F8BD00BF002C93
:1074100001D10E20F9E7002F01D10E20F5E72068F9
:10742000022805D2206800015C490858002801D1D3
:107430000720EAE720680001584940184089216880
:107440000901564A891809894843216809018918A0
:10745000496840186168884201D80720D5E7002DA7
:1074600006D0206800014D4940180089A84201DA81
:107470000720CAE7A81921680901484A891809891B
:10748000884201DD0720C0E7384600F07AF800287E
:1074900004D0B81900F075F8002801D11020B4E725
:1074A000606881192A46384600F07EF80020ACE773
:1074B000F8B504460F4600BF39480078002801D1CE
:1074C0000820F8BD00BF002C01D10E20F9E720688C
:1074D000022805D22068000130490858002801D14F
:1074E0000720EEE7206800012C49401840892168F8
:1074F00009012A4A8918098948432168090189181C
:10750000496840186168884201D80720D9E7206897
:10751000000122494018868901210907096989B2B9
:107520004E430020B3B20246214600900420FFF7EC
:10753000FDFC05462846C4E7014600BF1848007810
:10754000002801D10820704700BF002901D10E207A
:10755000F9E71448407808600020F4E738B50120C6
:10756000009000BFFEF704FD6846FFF7E5FF044604
:10757000002C01D0204638BD00980028F2D100BF71
:10758000F9E701468807800F002801D101207047E4
:107590000020FCE7EC200020E8200020F42600205A
:1075A000F220002098240020F8B5042A2CD3830769
:1075B00012D00B78491C0370401C521E83070BD05D
:1075C0000B78491C0370401C521E830704D00B78B3
:1075D000491C0370401C521E8B079B0F05D0C91A13
:1075E000DF002023DE1B08C90AE0FCF7CDFDF8BD53
:1075F0001D4608C9FD401C46B4402C4310C0121F54
:10760000042AF5D2F308C91A521EF0D40B78491C8B
:107610000370401C521EEAD40B78491C0370401CB6
:10762000012AE4D409780170F8BD01E004C0091F03
:107630000429FBD28B0701D50280801CC90700D02A
:107640000270704700290BD0C30702D00270401CA3
:10765000491E022904D3830702D50280801C891E9B
:10766000E3E70022EEE70022DFE7002203098B4276
:107670002CD3030A8B4211D300239C464EE00346D1
:107680000B433CD4002243088B4231D303098B4285
:107690001CD3030A8B4201D394463FE0C3098B42BB
:1076A00001D3CB01C01A524183098B4201D38B0114
:1076B000C01A524143098B4201D34B01C01A5241B7
:1076C00003098B4201D30B01C01A5241C3088B42FC
:1076D00001D3CB00C01A524183088B4201D38B00E7
:1076E000C01A524143088B4201D34B00C01A524189
:1076F000411A00D201465241104670475DE0CA0F60
:1077000000D04942031000D34042534000229C461F
:1077100003098B422DD3030A8B4212D3FC22890129
:1077200012BA030A8B420CD3890192118B4208D3FF
:10773000890192118B4204D389013AD0921100E061
:107740008909C3098B4201D3CB01C01A5241830975
:107750008B4201D38B01C01A524143098B4201D3A2
:107760004B01C01A524103098B4201D30B01C01ACD
:107770005241C3088B4201D3CB00C01A5241830847
:107780008B4201D38B00C01A5241D9D243088B429D
:1077900001D34B00C01A5241411A00D20146634640
:1077A00052415B10104601D34042002B00D54942A4
:1077B000704763465B1000D3404201B50020C046CD
:1077C000C04602BD704770477047754600F022F80A
:1077D000AE46050069465346C008C000854618B04D
:1077E00020B5FCF7FDFC60BC00274908B646002622
:1077F000C0C5C0C5C0C5C0C5C0C5C0C5C0C5C0C561
:10780000403D49008D4670470446C046C04620466C
:10781000FCF7A3FC004870471427002001491820FA
:10782000ABBEFEE72600020070470000A67D000008
:1078300067A9DE3E57F6898F594DD4EEA67D5DB31C
:107840006078010000200020F400000004410100E5
:1078500054790100F420002084160000204101002A
:107860000024F400000000000000FFFF02010400FB
:1078700012000000030000008D4401000800000019
:10788000030000008D440100000000000000000023
:1078900000000000000000000000000000000000E8
:1078A00000000000000000000000000000000000D8
:1078B00000000000000000000000000000000000C8
:1078C00000000000000000000000000000000000B8
:1078D00000000000000000000000000000000000A8
:1078E0000000000000000000000000000000000098
:1078F0000000000000000000000000000000000088
:107900000000000000000000000000000000000077
:107910000000000000000000000000000000000067
:107920000000000000000000000000000000000057
:107930000000000000000000000000000000000047
:107940000000000000000000000000000000000037
:047950000000000033
:04000005000140C1F5
:00000001FF
